{"contracts/VeinVault.sol":{"VeinVault":{"abi":[{"anonymous":false,"inputs":[{"indexed":true,"internalType":"uint256","name":"id","type":"uint256"},{"indexed":true,"internalType":"address","name":"owner","type":"address"},{"indexed":false,"internalType":"uint256","name":"unlockTimestamp","type":"uint256"}],"name":"CapsuleCreated","type":"event"},{"anonymous":false,"inputs":[{"indexed":true,"internalType":"uint256","name":"id","type":"uint256"},{"indexed":true,"internalType":"address","name":"owner","type":"address"}],"name":"CapsuleRevealed","type":"event"},{"anonymous":false,"inputs":[{"indexed":true,"internalType":"uint256","name":"id","type":"uint256"},{"indexed":false,"internalType":"string","name":"errorMsg","type":"string"}],"name":"InferenceError","type":"event"},{"anonymous":false,"inputs":[{"indexed":true,"internalType":"uint256","name":"id","type":"uint256"},{"indexed":false,"internalType":"enum VeinVault.Verdict","name":"verdict","type":"uint8"},{"indexed":false,"internalType":"uint8","name":"score","type":"uint8"}],"name":"VerdictStored","type":"event"},{"inputs":[{"internalType":"uint256","name":"","type":"uint256"}],"name":"capsules","outputs":[{"internalType":"uint256","name":"id","type":"uint256"},{"internalType":"address","name":"owner","type":"address"},{"internalType":"string","name":"category","type":"string"},{"internalType":"uint256","name":"createdAt","type":"uint256"},{"internalType":"uint256","name":"unlockTimestamp","type":"uint256"},{"internalType":"string","name":"encryptedPayloadHash","type":"string"},{"internalType":"bool","name":"isRevealed","type":"bool"},{"components":[{"internalType":"uint8","name":"score","type":"uint8"},{"internalType":"enum VeinVault.Verdict","name":"verdict","type":"uint8"},{"internalType":"bool","name":"hasError","type":"bool"}],"internalType":"struct VeinVault.Evaluation","name":"evaluation","type":"tuple"}],"stateMutability":"view","type":"function"},{"inputs":[{"internalType":"string","name":"category","type":"string"},{"internalType":"uint256","name":"unlockTimestamp","type":"uint256"},{"internalType":"string","name":"encryptedPayloadHash","type":"string"}],"name":"createCapsule","outputs":[{"internalType":"uint256","name":"","type":"uint256"}],"stateMutability":"nonpayable","type":"function"},{"inputs":[{"internalType":"uint256","name":"lockDuration","type":"uint256"}],"name":"depositForFees","outputs":[],"stateMutability":"payable","type":"function"},{"inputs":[{"internalType":"address","name":"user","type":"address"}],"name":"getConvictionScore","outputs":[{"internalType":"uint256","name":"","type":"uint256"}],"stateMutability":"view","type":"function"},{"inputs":[{"internalType":"address","name":"user","type":"address"}],"name":"getUserCapsules","outputs":[{"internalType":"uint256[]","name":"","type":"uint256[]"}],"stateMutability":"view","type":"function"},{"inputs":[{"internalType":"uint256","name":"capsuleId","type":"uint256"},{"internalType":"address","name":"executor","type":"address"},{"internalType":"string","name":"messagesJson","type":"string"},{"internalType":"bytes[]","name":"encryptedSecrets","type":"bytes[]"},{"internalType":"bytes[]","name":"secretSignatures","type":"bytes[]"},{"internalType":"bytes","name":"responseFormatData","type":"bytes"}],"name":"triggerUnlockAndEvaluate","outputs":[],"stateMutability":"nonpayable","type":"function"},{"inputs":[{"internalType":"address","name":"","type":"address"},{"internalType":"uint256","name":"","type":"uint256"}],"name":"userCapsules","outputs":[{"internalType":"uint256","name":"","type":"uint256"}],"stateMutability":"view","type":"function"},{"inputs":[{"internalType":"address","name":"","type":"address"}],"name":"userEvaluatedCapsules","outputs":[{"internalType":"uint256","name":"","type":"uint256"}],"stateMutability":"view","type":"function"},{"inputs":[{"internalType":"address","name":"","type":"address"}],"name":"userTotalScore","outputs":[{"internalType":"uint256","name":"","type":"uint256"}],"stateMutability":"view","type":"function"}],"evm":{"bytecode":{"linkReferences":{},"object":"6080806040523461001657610e24908161001c8239f35b600080fdfe608080604052600436101561001357600080fd5b60003560e01c908163366636f714610a7857508063517bbf461461096c57806351d23fb3146104ae57806366dc80311461023957806381bb42f4146101ff578063a0d79fb5146101a7578063a570bdcc1461017c578063bc882caa146100c15763d0023fcb1461008257600080fd5b346100bc5760203660031901126100bc576001600160a01b036100a3610b28565b1660005260036020526020604060002054604051908152f35b600080fd5b60203660031901126100bc57600080604051602081019063b6b55f2560e01b82526004356024820152602481526100f781610b78565b51903473532f0df0896f353d8c3dd8cc134e8129da2a39485af13d15610177573d61012181610c9b565b9061012f6040519283610b94565b8152600060203d92013e5b1561014157005b60405162461bcd60e51b815260206004820152600e60248201526d11195c1bdcda5d0819985a5b195960921b6044820152606490fd5b61013a565b346100bc5760203660031901126100bc57602061019f61019a610b28565b610d9a565b604051908152f35b346100bc5760403660031901126100bc576101c0610b28565b6001600160a01b03166000908152600260205260409020805460243591908210156100bc576020916101f191610d5d565b90546040519160031b1c8152f35b346100bc5760203660031901126100bc576001600160a01b03610220610b28565b1660005260046020526020604060002054604051908152f35b346100bc5760c03660031901126100bc576004356001600160a01b03602435818116036100bc5767ffffffffffffffff6044358181116100bc57610281903690600401610cfe565b50506064358181116100bc5761029b903690600401610d2c565b50506084358181116100bc576102b5903690600401610d2c565b505060a4359081116100bc576102cf903690600401610cfe565b505081600052602090600182526040600020916001830192828454169081330361047157600481015442106104335760068101805460ff81166103ee5760ff19166001179055604080516007929160009161032981610b78565b605f815260018782015201520161015f62ffffff19825416179055600052600381526040600020805492605f84018094116103d8577fa1b3fdbeef0725711f68b570d2594fb9f76409f322505748caaac1b416e47cee94604094605f93558181541660005260048452846000206103a08154610d8b565b9055541691835192867fdf1acd053a9eeda98d2473d7206a97d9a2642675e160695557e7436f7744a389600080a360018352820152a2005b634e487b7160e01b600052601160045260246000fd5b60405162461bcd60e51b815260048101869052601860248201527f43617073756c6520616c72656164792072657665616c656400000000000000006044820152606490fd5b60405162461bcd60e51b815260048101849052601660248201527510d85c1cdd5b19481a5cc81d1a5b594b5b1bd8dad95960521b6044820152606490fd5b60405162461bcd60e51b815260048101849052601560248201527413db9b1e481bdddb995c8818d85b881c995d99585b605a1b6044820152606490fd5b346100bc5760603660031901126100bc5760043567ffffffffffffffff81116100bc576104df903690600401610cb7565b60443567ffffffffffffffff81116100bc576104ff903690600401610cb7565b9042602435111561091d57610515600054610d8b565b90816000556040519061052782610b78565b60008252600060208301526000604083015260405191610100830183811067ffffffffffffffff82111761076b57604052838352602083019433865260408401928352426060850152602435608085015260a0840152600060c084015260e083015282600052600160205260406000209382518555600185019060018060a01b039051166bffffffffffffffffffffffff60a01b8254161790555192835167ffffffffffffffff811161076b576105e16002830154610b3e565b601f81116108d6575b506020601f821160011461086757819293949560009261085c575b50508160011b916000199060031b1c19161760028201555b606082015160038201556080820151600482015560a082015180519067ffffffffffffffff821161076b576106556005840154610b3e565b601f8111610815575b50602090601f83116001146107a257918060e09492600794600092610797575b50508160011b916000199060031b1c19161760058201555b6006810160c0850151151560ff801983541691161790550191015160ff81511682549160208101519160058310156107815762ff0000604061ff00930151151560101b169362ffffff1916179160081b16171790553360005260026020526040600020908154916801000000000000000083101561076b5782610720916001602095018155610d5d565b81549060031b9083821b91600019901b19161790556040516024358152817f94c04aecc42f013fcb329d54ab685a53f3a2a84902997bdbb2addc2af8e5b9e3843393a3604051908152f35b634e487b7160e01b600052604160045260246000fd5b634e487b7160e01b600052602160045260246000fd5b01519050878061067e565b90601f198316916005850160005260206000209260005b8181106107fd575092600192859260079660e09896106107e4575b505050811b016005820155610696565b015160001960f88460031b161c191690558780806107d4565b929360206001819287860151815501950193016107b9565b600584016000526020600020601f840160051c810160208510610855575b601f830160051c8201811061084957505061065e565b60008155600101610833565b5080610833565b015190508580610605565b6002830160005260206000209060005b601f19841681106108be575060019394959683601f198116106108a5575b505050811b01600282015561061d565b015160001960f88460031b161c19169055858080610895565b9091602060018192858b015181550193019101610877565b600283016000526020600020601f830160051c810160208410610916575b601f830160051c8201811061090a5750506105ea565b600081556001016108f4565b50806108f4565b60405162461bcd60e51b815260206004820152602160248201527f556e6c6f636b2074696d65206d75737420626520696e207468652066757475726044820152606560f81b6064820152608490fd5b346100bc5760203660031901126100bc5760043560005260016020526040600020805460018060a01b036001830154166109a860028401610bb6565b926003810154916004820154916109c160058201610bb6565b9460ff600683015416946007604051936109da85610b78565b01549660ff8816845260ff8860081c1695602085019660058110156107815760409a60ff97610a4996610a31938b52898e8a019d60101c1615158d528d519d8e6101409384938252602082015201528c0190610c5b565b9260608b015260808a015288820360a08a0152610c5b565b93151560c0870152511660e0850152519160058310156107815783926101008401525115156101208301520390f35b346100bc57602090816003193601126100bc576001600160a01b03610a9b610b28565b166000526002825260406000208054808352838301908192600052846000209060005b86828210610b14578686610ad482880383610b94565b604051928392818401908285525180915260408401929160005b828110610afd57505050500390f35b835185528695509381019392810192600101610aee565b835485529093019260019283019201610abe565b600435906001600160a01b03821682036100bc57565b90600182811c92168015610b6e575b6020831014610b5857565b634e487b7160e01b600052602260045260246000fd5b91607f1691610b4d565b6060810190811067ffffffffffffffff82111761076b57604052565b90601f8019910116810190811067ffffffffffffffff82111761076b57604052565b90604051918260008254610bc981610b3e565b90818452602094600191600181169081600014610c395750600114610bfa575b505050610bf892500383610b94565b565b600090815285812095935091905b818310610c21575050610bf89350820101388080610be9565b85548884018501529485019487945091830191610c08565b92505050610bf894925060ff191682840152151560051b820101388080610be9565b919082519283825260005b848110610c87575050826000602080949584010152601f8019910116010190565b602081830181015184830182015201610c66565b67ffffffffffffffff811161076b57601f01601f191660200190565b81601f820112156100bc57803590610cce82610c9b565b92610cdc6040519485610b94565b828452602083830101116100bc57816000926020809301838601378301015290565b9181601f840112156100bc5782359167ffffffffffffffff83116100bc57602083818601950101116100bc57565b9181601f840112156100bc5782359167ffffffffffffffff83116100bc576020808501948460051b0101116100bc57565b8054821015610d755760005260206000200190600090565b634e487b7160e01b600052603260045260246000fd5b60001981146103d85760010190565b6001600160a01b031660009081526004602052604081205415610deb576003602052604081205460046020526040822054918215610dd757500490565b634e487b7160e01b81526012600452602490fd5b9056fea26469706673582212209a157396efe5d6c2c8b1f83cc344ab33b9c3098a9f3b294e28e30d3ca55f423864736f6c63430008180033","opcodes":"PUSH1 0x80 DUP1 PUSH1 0x40 MSTORE CALLVALUE PUSH2 0x16 JUMPI PUSH2 0xE24 SWAP1 DUP2 PUSH2 0x1C DUP3 CODECOPY RETURN JUMPDEST PUSH1 0x0 DUP1 REVERT INVALID PUSH1 0x80 DUP1 PUSH1 0x40 MSTORE PUSH1 0x4 CALLDATASIZE LT ISZERO PUSH2 0x13 JUMPI PUSH1 0x0 DUP1 REVERT JUMPDEST PUSH1 0x0 CALLDATALOAD PUSH1 0xE0 SHR SWAP1 DUP2 PUSH4 0x366636F7 EQ PUSH2 0xA78 JUMPI POP DUP1 PUSH4 0x517BBF46 EQ PUSH2 0x96C JUMPI DUP1 PUSH4 0x51D23FB3 EQ PUSH2 0x4AE JUMPI DUP1 PUSH4 0x66DC8031 EQ PUSH2 0x239 JUMPI DUP1 PUSH4 0x81BB42F4 EQ PUSH2 0x1FF JUMPI DUP1 PUSH4 0xA0D79FB5 EQ PUSH2 0x1A7 JUMPI DUP1 PUSH4 0xA570BDCC EQ PUSH2 0x17C JUMPI DUP1 PUSH4 0xBC882CAA EQ PUSH2 0xC1 JUMPI PUSH4 0xD0023FCB EQ PUSH2 0x82 JUMPI PUSH1 0x0 DUP1 REVERT JUMPDEST CALLVALUE PUSH2 0xBC JUMPI PUSH1 0x20 CALLDATASIZE PUSH1 0x3 NOT ADD SLT PUSH2 0xBC JUMPI PUSH1 0x1 PUSH1 0x1 PUSH1 0xA0 SHL SUB PUSH2 0xA3 PUSH2 0xB28 JUMP JUMPDEST AND PUSH1 0x0 MSTORE PUSH1 0x3 PUSH1 0x20 MSTORE PUSH1 0x20 PUSH1 0x40 PUSH1 0x0 KECCAK256 SLOAD PUSH1 0x40 MLOAD SWAP1 DUP2 MSTORE RETURN JUMPDEST PUSH1 0x0 DUP1 REVERT JUMPDEST PUSH1 0x20 CALLDATASIZE PUSH1 0x3 NOT ADD SLT PUSH2 0xBC JUMPI PUSH1 0x0 DUP1 PUSH1 0x40 MLOAD PUSH1 0x20 DUP2 ADD SWAP1 PUSH4 0xB6B55F25 PUSH1 0xE0 SHL DUP3 MSTORE PUSH1 0x4 CALLDATALOAD PUSH1 0x24 DUP3 ADD MSTORE PUSH1 0x24 DUP2 MSTORE PUSH2 0xF7 DUP2 PUSH2 0xB78 JUMP JUMPDEST MLOAD SWAP1 CALLVALUE PUSH20 0x532F0DF0896F353D8C3DD8CC134E8129DA2A3948 GAS CALL RETURNDATASIZE ISZERO PUSH2 0x177 JUMPI RETURNDATASIZE PUSH2 0x121 DUP2 PUSH2 0xC9B JUMP JUMPDEST SWAP1 PUSH2 0x12F PUSH1 0x40 MLOAD SWAP3 DUP4 PUSH2 0xB94 JUMP JUMPDEST DUP2 MSTORE PUSH1 0x0 PUSH1 0x20 RETURNDATASIZE SWAP3 ADD RETURNDATACOPY JUMPDEST ISZERO PUSH2 0x141 JUMPI STOP JUMPDEST PUSH1 0x40 MLOAD PUSH3 0x461BCD PUSH1 0xE5 SHL DUP2 MSTORE PUSH1 0x20 PUSH1 0x4 DUP3 ADD MSTORE PUSH1 0xE PUSH1 0x24 DUP3 ADD MSTORE PUSH14 0x11195C1BDCDA5D0819985A5B1959 PUSH1 0x92 SHL PUSH1 0x44 DUP3 ADD MSTORE PUSH1 0x64 SWAP1 REVERT JUMPDEST PUSH2 0x13A JUMP JUMPDEST CALLVALUE PUSH2 0xBC JUMPI PUSH1 0x20 CALLDATASIZE PUSH1 0x3 NOT ADD SLT PUSH2 0xBC JUMPI PUSH1 0x20 PUSH2 0x19F PUSH2 0x19A PUSH2 0xB28 JUMP JUMPDEST PUSH2 0xD9A JUMP JUMPDEST PUSH1 0x40 MLOAD SWAP1 DUP2 MSTORE RETURN JUMPDEST CALLVALUE PUSH2 0xBC JUMPI PUSH1 0x40 CALLDATASIZE PUSH1 0x3 NOT ADD SLT PUSH2 0xBC JUMPI PUSH2 0x1C0 PUSH2 0xB28 JUMP JUMPDEST PUSH1 0x1 PUSH1 0x1 PUSH1 0xA0 SHL SUB AND PUSH1 0x0 SWAP1 DUP2 MSTORE PUSH1 0x2 PUSH1 0x20 MSTORE PUSH1 0x40 SWAP1 KECCAK256 DUP1 SLOAD PUSH1 0x24 CALLDATALOAD SWAP2 SWAP1 DUP3 LT ISZERO PUSH2 0xBC JUMPI PUSH1 0x20 SWAP2 PUSH2 0x1F1 SWAP2 PUSH2 0xD5D JUMP JUMPDEST SWAP1 SLOAD PUSH1 0x40 MLOAD SWAP2 PUSH1 0x3 SHL SHR DUP2 MSTORE RETURN JUMPDEST CALLVALUE PUSH2 0xBC JUMPI PUSH1 0x20 CALLDATASIZE PUSH1 0x3 NOT ADD SLT PUSH2 0xBC JUMPI PUSH1 0x1 PUSH1 0x1 PUSH1 0xA0 SHL SUB PUSH2 0x220 PUSH2 0xB28 JUMP JUMPDEST AND PUSH1 0x0 MSTORE PUSH1 0x4 PUSH1 0x20 MSTORE PUSH1 0x20 PUSH1 0x40 PUSH1 0x0 KECCAK256 SLOAD PUSH1 0x40 MLOAD SWAP1 DUP2 MSTORE RETURN JUMPDEST CALLVALUE PUSH2 0xBC JUMPI PUSH1 0xC0 CALLDATASIZE PUSH1 0x3 NOT ADD SLT PUSH2 0xBC JUMPI PUSH1 0x4 CALLDATALOAD PUSH1 0x1 PUSH1 0x1 PUSH1 0xA0 SHL SUB PUSH1 0x24 CALLDATALOAD DUP2 DUP2 AND SUB PUSH2 0xBC JUMPI PUSH8 0xFFFFFFFFFFFFFFFF PUSH1 0x44 CALLDATALOAD DUP2 DUP2 GT PUSH2 0xBC JUMPI PUSH2 0x281 SWAP1 CALLDATASIZE SWAP1 PUSH1 0x4 ADD PUSH2 0xCFE JUMP JUMPDEST POP POP PUSH1 0x64 CALLDATALOAD DUP2 DUP2 GT PUSH2 0xBC JUMPI PUSH2 0x29B SWAP1 CALLDATASIZE SWAP1 PUSH1 0x4 ADD PUSH2 0xD2C JUMP JUMPDEST POP POP PUSH1 0x84 CALLDATALOAD DUP2 DUP2 GT PUSH2 0xBC JUMPI PUSH2 0x2B5 SWAP1 CALLDATASIZE SWAP1 PUSH1 0x4 ADD PUSH2 0xD2C JUMP JUMPDEST POP POP PUSH1 0xA4 CALLDATALOAD SWAP1 DUP2 GT PUSH2 0xBC JUMPI PUSH2 0x2CF SWAP1 CALLDATASIZE SWAP1 PUSH1 0x4 ADD PUSH2 0xCFE JUMP JUMPDEST POP POP DUP2 PUSH1 0x0 MSTORE PUSH1 0x20 SWAP1 PUSH1 0x1 DUP3 MSTORE PUSH1 0x40 PUSH1 0x0 KECCAK256 SWAP2 PUSH1 0x1 DUP4 ADD SWAP3 DUP3 DUP5 SLOAD AND SWAP1 DUP2 CALLER SUB PUSH2 0x471 JUMPI PUSH1 0x4 DUP2 ADD SLOAD TIMESTAMP LT PUSH2 0x433 JUMPI PUSH1 0x6 DUP2 ADD DUP1 SLOAD PUSH1 0xFF DUP2 AND PUSH2 0x3EE JUMPI PUSH1 0xFF NOT AND PUSH1 0x1 OR SWAP1 SSTORE PUSH1 0x40 DUP1 MLOAD PUSH1 0x7 SWAP3 SWAP2 PUSH1 0x0 SWAP2 PUSH2 0x329 DUP2 PUSH2 0xB78 JUMP JUMPDEST PUSH1 0x5F DUP2 MSTORE PUSH1 0x1 DUP8 DUP3 ADD MSTORE ADD MSTORE ADD PUSH2 0x15F PUSH3 0xFFFFFF NOT DUP3 SLOAD AND OR SWAP1 SSTORE PUSH1 0x0 MSTORE PUSH1 0x3 DUP2 MSTORE PUSH1 0x40 PUSH1 0x0 KECCAK256 DUP1 SLOAD SWAP3 PUSH1 0x5F DUP5 ADD DUP1 SWAP5 GT PUSH2 0x3D8 JUMPI PUSH32 0xA1B3FDBEEF0725711F68B570D2594FB9F76409F322505748CAAAC1B416E47CEE SWAP5 PUSH1 0x40 SWAP5 PUSH1 0x5F SWAP4 SSTORE DUP2 DUP2 SLOAD AND PUSH1 0x0 MSTORE PUSH1 0x4 DUP5 MSTORE DUP5 PUSH1 0x0 KECCAK256 PUSH2 0x3A0 DUP2 SLOAD PUSH2 0xD8B JUMP JUMPDEST SWAP1 SSTORE SLOAD AND SWAP2 DUP4 MLOAD SWAP3 DUP7 PUSH32 0xDF1ACD053A9EEDA98D2473D7206A97D9A2642675E160695557E7436F7744A389 PUSH1 0x0 DUP1 LOG3 PUSH1 0x1 DUP4 MSTORE DUP3 ADD MSTORE LOG2 STOP JUMPDEST PUSH4 0x4E487B71 PUSH1 0xE0 SHL PUSH1 0x0 MSTORE PUSH1 0x11 PUSH1 0x4 MSTORE PUSH1 0x24 PUSH1 0x0 REVERT JUMPDEST PUSH1 0x40 MLOAD PUSH3 0x461BCD PUSH1 0xE5 SHL DUP2 MSTORE PUSH1 0x4 DUP2 ADD DUP7 SWAP1 MSTORE PUSH1 0x18 PUSH1 0x24 DUP3 ADD MSTORE PUSH32 0x43617073756C6520616C72656164792072657665616C65640000000000000000 PUSH1 0x44 DUP3 ADD MSTORE PUSH1 0x64 SWAP1 REVERT JUMPDEST PUSH1 0x40 MLOAD PUSH3 0x461BCD PUSH1 0xE5 SHL DUP2 MSTORE PUSH1 0x4 DUP2 ADD DUP5 SWAP1 MSTORE PUSH1 0x16 PUSH1 0x24 DUP3 ADD MSTORE PUSH22 0x10D85C1CDD5B19481A5CC81D1A5B594B5B1BD8DAD959 PUSH1 0x52 SHL PUSH1 0x44 DUP3 ADD MSTORE PUSH1 0x64 SWAP1 REVERT JUMPDEST PUSH1 0x40 MLOAD PUSH3 0x461BCD PUSH1 0xE5 SHL DUP2 MSTORE PUSH1 0x4 DUP2 ADD DUP5 SWAP1 MSTORE PUSH1 0x15 PUSH1 0x24 DUP3 ADD MSTORE PUSH21 0x13DB9B1E481BDDDB995C8818D85B881C995D99585B PUSH1 0x5A SHL PUSH1 0x44 DUP3 ADD MSTORE PUSH1 0x64 SWAP1 REVERT JUMPDEST CALLVALUE PUSH2 0xBC JUMPI PUSH1 0x60 CALLDATASIZE PUSH1 0x3 NOT ADD SLT PUSH2 0xBC JUMPI PUSH1 0x4 CALLDATALOAD PUSH8 0xFFFFFFFFFFFFFFFF DUP2 GT PUSH2 0xBC JUMPI PUSH2 0x4DF SWAP1 CALLDATASIZE SWAP1 PUSH1 0x4 ADD PUSH2 0xCB7 JUMP JUMPDEST PUSH1 0x44 CALLDATALOAD PUSH8 0xFFFFFFFFFFFFFFFF DUP2 GT PUSH2 0xBC JUMPI PUSH2 0x4FF SWAP1 CALLDATASIZE SWAP1 PUSH1 0x4 ADD PUSH2 0xCB7 JUMP JUMPDEST SWAP1 TIMESTAMP PUSH1 0x24 CALLDATALOAD GT ISZERO PUSH2 0x91D JUMPI PUSH2 0x515 PUSH1 0x0 SLOAD PUSH2 0xD8B JUMP JUMPDEST SWAP1 DUP2 PUSH1 0x0 SSTORE PUSH1 0x40 MLOAD SWAP1 PUSH2 0x527 DUP3 PUSH2 0xB78 JUMP JUMPDEST PUSH1 0x0 DUP3 MSTORE PUSH1 0x0 PUSH1 0x20 DUP4 ADD MSTORE PUSH1 0x0 PUSH1 0x40 DUP4 ADD MSTORE PUSH1 0x40 MLOAD SWAP2 PUSH2 0x100 DUP4 ADD DUP4 DUP2 LT PUSH8 0xFFFFFFFFFFFFFFFF DUP3 GT OR PUSH2 0x76B JUMPI PUSH1 0x40 MSTORE DUP4 DUP4 MSTORE PUSH1 0x20 DUP4 ADD SWAP5 CALLER DUP7 MSTORE PUSH1 0x40 DUP5 ADD SWAP3 DUP4 MSTORE TIMESTAMP PUSH1 0x60 DUP6 ADD MSTORE PUSH1 0x24 CALLDATALOAD PUSH1 0x80 DUP6 ADD MSTORE PUSH1 0xA0 DUP5 ADD MSTORE PUSH1 0x0 PUSH1 0xC0 DUP5 ADD MSTORE PUSH1 0xE0 DUP4 ADD MSTORE DUP3 PUSH1 0x0 MSTORE PUSH1 0x1 PUSH1 0x20 MSTORE PUSH1 0x40 PUSH1 0x0 KECCAK256 SWAP4 DUP3 MLOAD DUP6 SSTORE PUSH1 0x1 DUP6 ADD SWAP1 PUSH1 0x1 DUP1 PUSH1 0xA0 SHL SUB SWAP1 MLOAD AND PUSH12 0xFFFFFFFFFFFFFFFFFFFFFFFF PUSH1 0xA0 SHL DUP3 SLOAD AND OR SWAP1 SSTORE MLOAD SWAP3 DUP4 MLOAD PUSH8 0xFFFFFFFFFFFFFFFF DUP2 GT PUSH2 0x76B JUMPI PUSH2 0x5E1 PUSH1 0x2 DUP4 ADD SLOAD PUSH2 0xB3E JUMP JUMPDEST PUSH1 0x1F DUP2 GT PUSH2 0x8D6 JUMPI JUMPDEST POP PUSH1 0x20 PUSH1 0x1F DUP3 GT PUSH1 0x1 EQ PUSH2 0x867 JUMPI DUP2 SWAP3 SWAP4 SWAP5 SWAP6 PUSH1 0x0 SWAP3 PUSH2 0x85C JUMPI JUMPDEST POP POP DUP2 PUSH1 0x1 SHL SWAP2 PUSH1 0x0 NOT SWAP1 PUSH1 0x3 SHL SHR NOT AND OR PUSH1 0x2 DUP3 ADD SSTORE JUMPDEST PUSH1 0x60 DUP3 ADD MLOAD PUSH1 0x3 DUP3 ADD SSTORE PUSH1 0x80 DUP3 ADD MLOAD PUSH1 0x4 DUP3 ADD SSTORE PUSH1 0xA0 DUP3 ADD MLOAD DUP1 MLOAD SWAP1 PUSH8 0xFFFFFFFFFFFFFFFF DUP3 GT PUSH2 0x76B JUMPI PUSH2 0x655 PUSH1 0x5 DUP5 ADD SLOAD PUSH2 0xB3E JUMP JUMPDEST PUSH1 0x1F DUP2 GT PUSH2 0x815 JUMPI JUMPDEST POP PUSH1 0x20 SWAP1 PUSH1 0x1F DUP4 GT PUSH1 0x1 EQ PUSH2 0x7A2 JUMPI SWAP2 DUP1 PUSH1 0xE0 SWAP5 SWAP3 PUSH1 0x7 SWAP5 PUSH1 0x0 SWAP3 PUSH2 0x797 JUMPI JUMPDEST POP POP DUP2 PUSH1 0x1 SHL SWAP2 PUSH1 0x0 NOT SWAP1 PUSH1 0x3 SHL SHR NOT AND OR PUSH1 0x5 DUP3 ADD SSTORE JUMPDEST PUSH1 0x6 DUP2 ADD PUSH1 0xC0 DUP6 ADD MLOAD ISZERO ISZERO PUSH1 0xFF DUP1 NOT DUP4 SLOAD AND SWAP2 AND OR SWAP1 SSTORE ADD SWAP2 ADD MLOAD PUSH1 0xFF DUP2 MLOAD AND DUP3 SLOAD SWAP2 PUSH1 0x20 DUP2 ADD MLOAD SWAP2 PUSH1 0x5 DUP4 LT ISZERO PUSH2 0x781 JUMPI PUSH3 0xFF0000 PUSH1 0x40 PUSH2 0xFF00 SWAP4 ADD MLOAD ISZERO ISZERO PUSH1 0x10 SHL AND SWAP4 PUSH3 0xFFFFFF NOT AND OR SWAP2 PUSH1 0x8 SHL AND OR OR SWAP1 SSTORE CALLER PUSH1 0x0 MSTORE PUSH1 0x2 PUSH1 0x20 MSTORE PUSH1 0x40 PUSH1 0x0 KECCAK256 SWAP1 DUP2 SLOAD SWAP2 PUSH9 0x10000000000000000 DUP4 LT ISZERO PUSH2 0x76B JUMPI DUP3 PUSH2 0x720 SWAP2 PUSH1 0x1 PUSH1 0x20 SWAP6 ADD DUP2 SSTORE PUSH2 0xD5D JUMP JUMPDEST DUP2 SLOAD SWAP1 PUSH1 0x3 SHL SWAP1 DUP4 DUP3 SHL SWAP2 PUSH1 0x0 NOT SWAP1 SHL NOT AND OR SWAP1 SSTORE PUSH1 0x40 MLOAD PUSH1 0x24 CALLDATALOAD DUP2 MSTORE DUP2 PUSH32 0x94C04AECC42F013FCB329D54AB685A53F3A2A84902997BDBB2ADDC2AF8E5B9E3 DUP5 CALLER SWAP4 LOG3 PUSH1 0x40 MLOAD SWAP1 DUP2 MSTORE RETURN JUMPDEST PUSH4 0x4E487B71 PUSH1 0xE0 SHL PUSH1 0x0 MSTORE PUSH1 0x41 PUSH1 0x4 MSTORE PUSH1 0x24 PUSH1 0x0 REVERT JUMPDEST PUSH4 0x4E487B71 PUSH1 0xE0 SHL PUSH1 0x0 MSTORE PUSH1 0x21 PUSH1 0x4 MSTORE PUSH1 0x24 PUSH1 0x0 REVERT JUMPDEST ADD MLOAD SWAP1 POP DUP8 DUP1 PUSH2 0x67E JUMP JUMPDEST SWAP1 PUSH1 0x1F NOT DUP4 AND SWAP2 PUSH1 0x5 DUP6 ADD PUSH1 0x0 MSTORE PUSH1 0x20 PUSH1 0x0 KECCAK256 SWAP3 PUSH1 0x0 JUMPDEST DUP2 DUP2 LT PUSH2 0x7FD JUMPI POP SWAP3 PUSH1 0x1 SWAP3 DUP6 SWAP3 PUSH1 0x7 SWAP7 PUSH1 0xE0 SWAP9 SWAP7 LT PUSH2 0x7E4 JUMPI JUMPDEST POP POP POP DUP2 SHL ADD PUSH1 0x5 DUP3 ADD SSTORE PUSH2 0x696 JUMP JUMPDEST ADD MLOAD PUSH1 0x0 NOT PUSH1 0xF8 DUP5 PUSH1 0x3 SHL AND SHR NOT AND SWAP1 SSTORE DUP8 DUP1 DUP1 PUSH2 0x7D4 JUMP JUMPDEST SWAP3 SWAP4 PUSH1 0x20 PUSH1 0x1 DUP2 SWAP3 DUP8 DUP7 ADD MLOAD DUP2 SSTORE ADD SWAP6 ADD SWAP4 ADD PUSH2 0x7B9 JUMP JUMPDEST PUSH1 0x5 DUP5 ADD PUSH1 0x0 MSTORE PUSH1 0x20 PUSH1 0x0 KECCAK256 PUSH1 0x1F DUP5 ADD PUSH1 0x5 SHR DUP2 ADD PUSH1 0x20 DUP6 LT PUSH2 0x855 JUMPI JUMPDEST PUSH1 0x1F DUP4 ADD PUSH1 0x5 SHR DUP3 ADD DUP2 LT PUSH2 0x849 JUMPI POP POP PUSH2 0x65E JUMP JUMPDEST PUSH1 0x0 DUP2 SSTORE PUSH1 0x1 ADD PUSH2 0x833 JUMP JUMPDEST POP DUP1 PUSH2 0x833 JUMP JUMPDEST ADD MLOAD SWAP1 POP DUP6 DUP1 PUSH2 0x605 JUMP JUMPDEST PUSH1 0x2 DUP4 ADD PUSH1 0x0 MSTORE PUSH1 0x20 PUSH1 0x0 KECCAK256 SWAP1 PUSH1 0x0 JUMPDEST PUSH1 0x1F NOT DUP5 AND DUP2 LT PUSH2 0x8BE JUMPI POP PUSH1 0x1 SWAP4 SWAP5 SWAP6 SWAP7 DUP4 PUSH1 0x1F NOT DUP2 AND LT PUSH2 0x8A5 JUMPI JUMPDEST POP POP POP DUP2 SHL ADD PUSH1 0x2 DUP3 ADD SSTORE PUSH2 0x61D JUMP JUMPDEST ADD MLOAD PUSH1 0x0 NOT PUSH1 0xF8 DUP5 PUSH1 0x3 SHL AND SHR NOT AND SWAP1 SSTORE DUP6 DUP1 DUP1 PUSH2 0x895 JUMP JUMPDEST SWAP1 SWAP2 PUSH1 0x20 PUSH1 0x1 DUP2 SWAP3 DUP6 DUP12 ADD MLOAD DUP2 SSTORE ADD SWAP4 ADD SWAP2 ADD PUSH2 0x877 JUMP JUMPDEST PUSH1 0x2 DUP4 ADD PUSH1 0x0 MSTORE PUSH1 0x20 PUSH1 0x0 KECCAK256 PUSH1 0x1F DUP4 ADD PUSH1 0x5 SHR DUP2 ADD PUSH1 0x20 DUP5 LT PUSH2 0x916 JUMPI JUMPDEST PUSH1 0x1F DUP4 ADD PUSH1 0x5 SHR DUP3 ADD DUP2 LT PUSH2 0x90A JUMPI POP POP PUSH2 0x5EA JUMP JUMPDEST PUSH1 0x0 DUP2 SSTORE PUSH1 0x1 ADD PUSH2 0x8F4 JUMP JUMPDEST POP DUP1 PUSH2 0x8F4 JUMP JUMPDEST PUSH1 0x40 MLOAD PUSH3 0x461BCD PUSH1 0xE5 SHL DUP2 MSTORE PUSH1 0x20 PUSH1 0x4 DUP3 ADD MSTORE PUSH1 0x21 PUSH1 0x24 DUP3 ADD MSTORE PUSH32 0x556E6C6F636B2074696D65206D75737420626520696E20746865206675747572 PUSH1 0x44 DUP3 ADD MSTORE PUSH1 0x65 PUSH1 0xF8 SHL PUSH1 0x64 DUP3 ADD MSTORE PUSH1 0x84 SWAP1 REVERT JUMPDEST CALLVALUE PUSH2 0xBC JUMPI PUSH1 0x20 CALLDATASIZE PUSH1 0x3 NOT ADD SLT PUSH2 0xBC JUMPI PUSH1 0x4 CALLDATALOAD PUSH1 0x0 MSTORE PUSH1 0x1 PUSH1 0x20 MSTORE PUSH1 0x40 PUSH1 0x0 KECCAK256 DUP1 SLOAD PUSH1 0x1 DUP1 PUSH1 0xA0 SHL SUB PUSH1 0x1 DUP4 ADD SLOAD AND PUSH2 0x9A8 PUSH1 0x2 DUP5 ADD PUSH2 0xBB6 JUMP JUMPDEST SWAP3 PUSH1 0x3 DUP2 ADD SLOAD SWAP2 PUSH1 0x4 DUP3 ADD SLOAD SWAP2 PUSH2 0x9C1 PUSH1 0x5 DUP3 ADD PUSH2 0xBB6 JUMP JUMPDEST SWAP5 PUSH1 0xFF PUSH1 0x6 DUP4 ADD SLOAD AND SWAP5 PUSH1 0x7 PUSH1 0x40 MLOAD SWAP4 PUSH2 0x9DA DUP6 PUSH2 0xB78 JUMP JUMPDEST ADD SLOAD SWAP7 PUSH1 0xFF DUP9 AND DUP5 MSTORE PUSH1 0xFF DUP9 PUSH1 0x8 SHR AND SWAP6 PUSH1 0x20 DUP6 ADD SWAP7 PUSH1 0x5 DUP2 LT ISZERO PUSH2 0x781 JUMPI PUSH1 0x40 SWAP11 PUSH1 0xFF SWAP8 PUSH2 0xA49 SWAP7 PUSH2 0xA31 SWAP4 DUP12 MSTORE DUP10 DUP15 DUP11 ADD SWAP14 PUSH1 0x10 SHR AND ISZERO ISZERO DUP14 MSTORE DUP14 MLOAD SWAP14 DUP15 PUSH2 0x140 SWAP4 DUP5 SWAP4 DUP3 MSTORE PUSH1 0x20 DUP3 ADD MSTORE ADD MSTORE DUP13 ADD SWAP1 PUSH2 0xC5B JUMP JUMPDEST SWAP3 PUSH1 0x60 DUP12 ADD MSTORE PUSH1 0x80 DUP11 ADD MSTORE DUP9 DUP3 SUB PUSH1 0xA0 DUP11 ADD MSTORE PUSH2 0xC5B JUMP JUMPDEST SWAP4 ISZERO ISZERO PUSH1 0xC0 DUP8 ADD MSTORE MLOAD AND PUSH1 0xE0 DUP6 ADD MSTORE MLOAD SWAP2 PUSH1 0x5 DUP4 LT ISZERO PUSH2 0x781 JUMPI DUP4 SWAP3 PUSH2 0x100 DUP5 ADD MSTORE MLOAD ISZERO ISZERO PUSH2 0x120 DUP4 ADD MSTORE SUB SWAP1 RETURN JUMPDEST CALLVALUE PUSH2 0xBC JUMPI PUSH1 0x20 SWAP1 DUP2 PUSH1 0x3 NOT CALLDATASIZE ADD SLT PUSH2 0xBC JUMPI PUSH1 0x1 PUSH1 0x1 PUSH1 0xA0 SHL SUB PUSH2 0xA9B PUSH2 0xB28 JUMP JUMPDEST AND PUSH1 0x0 MSTORE PUSH1 0x2 DUP3 MSTORE PUSH1 0x40 PUSH1 0x0 KECCAK256 DUP1 SLOAD DUP1 DUP4 MSTORE DUP4 DUP4 ADD SWAP1 DUP2 SWAP3 PUSH1 0x0 MSTORE DUP5 PUSH1 0x0 KECCAK256 SWAP1 PUSH1 0x0 JUMPDEST DUP7 DUP3 DUP3 LT PUSH2 0xB14 JUMPI DUP7 DUP7 PUSH2 0xAD4 DUP3 DUP9 SUB DUP4 PUSH2 0xB94 JUMP JUMPDEST PUSH1 0x40 MLOAD SWAP3 DUP4 SWAP3 DUP2 DUP5 ADD SWAP1 DUP3 DUP6 MSTORE MLOAD DUP1 SWAP2 MSTORE PUSH1 0x40 DUP5 ADD SWAP3 SWAP2 PUSH1 0x0 JUMPDEST DUP3 DUP2 LT PUSH2 0xAFD JUMPI POP POP POP POP SUB SWAP1 RETURN JUMPDEST DUP4 MLOAD DUP6 MSTORE DUP7 SWAP6 POP SWAP4 DUP2 ADD SWAP4 SWAP3 DUP2 ADD SWAP3 PUSH1 0x1 ADD PUSH2 0xAEE JUMP JUMPDEST DUP4 SLOAD DUP6 MSTORE SWAP1 SWAP4 ADD SWAP3 PUSH1 0x1 SWAP3 DUP4 ADD SWAP3 ADD PUSH2 0xABE JUMP JUMPDEST PUSH1 0x4 CALLDATALOAD SWAP1 PUSH1 0x1 PUSH1 0x1 PUSH1 0xA0 SHL SUB DUP3 AND DUP3 SUB PUSH2 0xBC JUMPI JUMP JUMPDEST SWAP1 PUSH1 0x1 DUP3 DUP2 SHR SWAP3 AND DUP1 ISZERO PUSH2 0xB6E JUMPI JUMPDEST PUSH1 0x20 DUP4 LT EQ PUSH2 0xB58 JUMPI JUMP JUMPDEST PUSH4 0x4E487B71 PUSH1 0xE0 SHL PUSH1 0x0 MSTORE PUSH1 0x22 PUSH1 0x4 MSTORE PUSH1 0x24 PUSH1 0x0 REVERT JUMPDEST SWAP2 PUSH1 0x7F AND SWAP2 PUSH2 0xB4D JUMP JUMPDEST PUSH1 0x60 DUP2 ADD SWAP1 DUP2 LT PUSH8 0xFFFFFFFFFFFFFFFF DUP3 GT OR PUSH2 0x76B JUMPI PUSH1 0x40 MSTORE JUMP JUMPDEST SWAP1 PUSH1 0x1F DUP1 NOT SWAP2 ADD AND DUP2 ADD SWAP1 DUP2 LT PUSH8 0xFFFFFFFFFFFFFFFF DUP3 GT OR PUSH2 0x76B JUMPI PUSH1 0x40 MSTORE JUMP JUMPDEST SWAP1 PUSH1 0x40 MLOAD SWAP2 DUP3 PUSH1 0x0 DUP3 SLOAD PUSH2 0xBC9 DUP2 PUSH2 0xB3E JUMP JUMPDEST SWAP1 DUP2 DUP5 MSTORE PUSH1 0x20 SWAP5 PUSH1 0x1 SWAP2 PUSH1 0x1 DUP2 AND SWAP1 DUP2 PUSH1 0x0 EQ PUSH2 0xC39 JUMPI POP PUSH1 0x1 EQ PUSH2 0xBFA JUMPI JUMPDEST POP POP POP PUSH2 0xBF8 SWAP3 POP SUB DUP4 PUSH2 0xB94 JUMP JUMPDEST JUMP JUMPDEST PUSH1 0x0 SWAP1 DUP2 MSTORE DUP6 DUP2 KECCAK256 SWAP6 SWAP4 POP SWAP2 SWAP1 JUMPDEST DUP2 DUP4 LT PUSH2 0xC21 JUMPI POP POP PUSH2 0xBF8 SWAP4 POP DUP3 ADD ADD CODESIZE DUP1 DUP1 PUSH2 0xBE9 JUMP JUMPDEST DUP6 SLOAD DUP9 DUP5 ADD DUP6 ADD MSTORE SWAP5 DUP6 ADD SWAP5 DUP8 SWAP5 POP SWAP2 DUP4 ADD SWAP2 PUSH2 0xC08 JUMP JUMPDEST SWAP3 POP POP POP PUSH2 0xBF8 SWAP5 SWAP3 POP PUSH1 0xFF NOT AND DUP3 DUP5 ADD MSTORE ISZERO ISZERO PUSH1 0x5 SHL DUP3 ADD ADD CODESIZE DUP1 DUP1 PUSH2 0xBE9 JUMP JUMPDEST SWAP2 SWAP1 DUP3 MLOAD SWAP3 DUP4 DUP3 MSTORE PUSH1 0x0 JUMPDEST DUP5 DUP2 LT PUSH2 0xC87 JUMPI POP POP DUP3 PUSH1 0x0 PUSH1 0x20 DUP1 SWAP5 SWAP6 DUP5 ADD ADD MSTORE PUSH1 0x1F DUP1 NOT SWAP2 ADD AND ADD ADD SWAP1 JUMP JUMPDEST PUSH1 0x20 DUP2 DUP4 ADD DUP2 ADD MLOAD DUP5 DUP4 ADD DUP3 ADD MSTORE ADD PUSH2 0xC66 JUMP JUMPDEST PUSH8 0xFFFFFFFFFFFFFFFF DUP2 GT PUSH2 0x76B JUMPI PUSH1 0x1F ADD PUSH1 0x1F NOT AND PUSH1 0x20 ADD SWAP1 JUMP JUMPDEST DUP2 PUSH1 0x1F DUP3 ADD SLT ISZERO PUSH2 0xBC JUMPI DUP1 CALLDATALOAD SWAP1 PUSH2 0xCCE DUP3 PUSH2 0xC9B JUMP JUMPDEST SWAP3 PUSH2 0xCDC PUSH1 0x40 MLOAD SWAP5 DUP6 PUSH2 0xB94 JUMP JUMPDEST DUP3 DUP5 MSTORE PUSH1 0x20 DUP4 DUP4 ADD ADD GT PUSH2 0xBC JUMPI DUP2 PUSH1 0x0 SWAP3 PUSH1 0x20 DUP1 SWAP4 ADD DUP4 DUP7 ADD CALLDATACOPY DUP4 ADD ADD MSTORE SWAP1 JUMP JUMPDEST SWAP2 DUP2 PUSH1 0x1F DUP5 ADD SLT ISZERO PUSH2 0xBC JUMPI DUP3 CALLDATALOAD SWAP2 PUSH8 0xFFFFFFFFFFFFFFFF DUP4 GT PUSH2 0xBC JUMPI PUSH1 0x20 DUP4 DUP2 DUP7 ADD SWAP6 ADD ADD GT PUSH2 0xBC JUMPI JUMP JUMPDEST SWAP2 DUP2 PUSH1 0x1F DUP5 ADD SLT ISZERO PUSH2 0xBC JUMPI DUP3 CALLDATALOAD SWAP2 PUSH8 0xFFFFFFFFFFFFFFFF DUP4 GT PUSH2 0xBC JUMPI PUSH1 0x20 DUP1 DUP6 ADD SWAP5 DUP5 PUSH1 0x5 SHL ADD ADD GT PUSH2 0xBC JUMPI JUMP JUMPDEST DUP1 SLOAD DUP3 LT ISZERO PUSH2 0xD75 JUMPI PUSH1 0x0 MSTORE PUSH1 0x20 PUSH1 0x0 KECCAK256 ADD SWAP1 PUSH1 0x0 SWAP1 JUMP JUMPDEST PUSH4 0x4E487B71 PUSH1 0xE0 SHL PUSH1 0x0 MSTORE PUSH1 0x32 PUSH1 0x4 MSTORE PUSH1 0x24 PUSH1 0x0 REVERT JUMPDEST PUSH1 0x0 NOT DUP2 EQ PUSH2 0x3D8 JUMPI PUSH1 0x1 ADD SWAP1 JUMP JUMPDEST PUSH1 0x1 PUSH1 0x1 PUSH1 0xA0 SHL SUB AND PUSH1 0x0 SWAP1 DUP2 MSTORE PUSH1 0x4 PUSH1 0x20 MSTORE PUSH1 0x40 DUP2 KECCAK256 SLOAD ISZERO PUSH2 0xDEB JUMPI PUSH1 0x3 PUSH1 0x20 MSTORE PUSH1 0x40 DUP2 KECCAK256 SLOAD PUSH1 0x4 PUSH1 0x20 MSTORE PUSH1 0x40 DUP3 KECCAK256 SLOAD SWAP2 DUP3 ISZERO PUSH2 0xDD7 JUMPI POP DIV SWAP1 JUMP JUMPDEST PUSH4 0x4E487B71 PUSH1 0xE0 SHL DUP2 MSTORE PUSH1 0x12 PUSH1 0x4 MSTORE PUSH1 0x24 SWAP1 REVERT JUMPDEST SWAP1 JUMP INVALID LOG2 PUSH5 0x6970667358 0x22 SLT KECCAK256 SWAP11 ISZERO PUSH20 0x96EFE5D6C2C8B1F83CC344AB33B9C3098A9F3B29 0x4E 0x28 0xE3 0xD EXTCODECOPY 0xA5 PUSH0 TIMESTAMP CODESIZE PUSH5 0x736F6C6343 STOP ADDMOD XOR STOP CALLER "},"methodIdentifiers":{"capsules(uint256)":"517bbf46","createCapsule(string,uint256,string)":"51d23fb3","depositForFees(uint256)":"bc882caa","getConvictionScore(address)":"a570bdcc","getUserCapsules(address)":"366636f7","triggerUnlockAndEvaluate(uint256,address,string,bytes[],bytes[],bytes)":"66dc8031","userCapsules(address,uint256)":"a0d79fb5","userEvaluatedCapsules(address)":"81bb42f4","userTotalScore(address)":"d0023fcb"}}}}}