{"contracts/VeinVault.sol":{"VeinVault":{"abi":[{"anonymous":false,"inputs":[{"indexed":true,"internalType":"uint256","name":"id","type":"uint256"},{"indexed":true,"internalType":"address","name":"owner","type":"address"},{"indexed":false,"internalType":"uint256","name":"unlockTimestamp","type":"uint256"}],"name":"CapsuleCreated","type":"event"},{"anonymous":false,"inputs":[{"indexed":true,"internalType":"uint256","name":"id","type":"uint256"},{"indexed":true,"internalType":"address","name":"owner","type":"address"}],"name":"CapsuleRevealed","type":"event"},{"anonymous":false,"inputs":[{"indexed":true,"internalType":"uint256","name":"id","type":"uint256"},{"indexed":false,"internalType":"string","name":"errorMsg","type":"string"}],"name":"InferenceError","type":"event"},{"anonymous":false,"inputs":[{"indexed":true,"internalType":"uint256","name":"id","type":"uint256"},{"indexed":false,"internalType":"enum VeinVault.Verdict","name":"verdict","type":"uint8"},{"indexed":false,"internalType":"uint8","name":"score","type":"uint8"}],"name":"VerdictStored","type":"event"},{"inputs":[{"internalType":"uint256","name":"","type":"uint256"}],"name":"capsules","outputs":[{"internalType":"uint256","name":"id","type":"uint256"},{"internalType":"address","name":"owner","type":"address"},{"internalType":"string","name":"category","type":"string"},{"internalType":"uint256","name":"createdAt","type":"uint256"},{"internalType":"uint256","name":"unlockTimestamp","type":"uint256"},{"internalType":"string","name":"encryptedPayloadHash","type":"string"},{"internalType":"bool","name":"isRevealed","type":"bool"},{"components":[{"internalType":"uint8","name":"score","type":"uint8"},{"internalType":"enum VeinVault.Verdict","name":"verdict","type":"uint8"},{"internalType":"bool","name":"hasError","type":"bool"}],"internalType":"struct VeinVault.Evaluation","name":"evaluation","type":"tuple"}],"stateMutability":"view","type":"function"},{"inputs":[{"internalType":"string","name":"category","type":"string"},{"internalType":"uint256","name":"unlockTimestamp","type":"uint256"},{"internalType":"string","name":"encryptedPayloadHash","type":"string"}],"name":"createCapsule","outputs":[{"internalType":"uint256","name":"","type":"uint256"}],"stateMutability":"nonpayable","type":"function"},{"inputs":[{"internalType":"uint256","name":"lockDuration","type":"uint256"}],"name":"depositForFees","outputs":[],"stateMutability":"payable","type":"function"},{"inputs":[{"internalType":"address","name":"user","type":"address"}],"name":"getConvictionScore","outputs":[{"internalType":"uint256","name":"","type":"uint256"}],"stateMutability":"view","type":"function"},{"inputs":[{"internalType":"address","name":"user","type":"address"}],"name":"getUserCapsules","outputs":[{"internalType":"uint256[]","name":"","type":"uint256[]"}],"stateMutability":"view","type":"function"},{"inputs":[{"internalType":"uint256","name":"capsuleId","type":"uint256"},{"internalType":"address","name":"executor","type":"address"},{"internalType":"string","name":"messagesJson","type":"string"},{"internalType":"bytes[]","name":"encryptedSecrets","type":"bytes[]"},{"internalType":"bytes[]","name":"secretSignatures","type":"bytes[]"},{"internalType":"bytes","name":"responseFormatData","type":"bytes"}],"name":"triggerUnlockAndEvaluate","outputs":[],"stateMutability":"nonpayable","type":"function"},{"inputs":[{"internalType":"address","name":"","type":"address"},{"internalType":"uint256","name":"","type":"uint256"}],"name":"userCapsules","outputs":[{"internalType":"uint256","name":"","type":"uint256"}],"stateMutability":"view","type":"function"},{"inputs":[{"internalType":"address","name":"","type":"address"}],"name":"userEvaluatedCapsules","outputs":[{"internalType":"uint256","name":"","type":"uint256"}],"stateMutability":"view","type":"function"},{"inputs":[{"internalType":"address","name":"","type":"address"}],"name":"userTotalScore","outputs":[{"internalType":"uint256","name":"","type":"uint256"}],"stateMutability":"view","type":"function"}],"evm":{"bytecode":{"linkReferences":{},"object":"60808060405234610016576114c4908161001c8239f35b600080fdfe608080604052600436101561001357600080fd5b60003560e01c908163366636f71461087f57508063517bbf461461077357806351d23fb3146102ba57806366dc80311461021457806381bb42f4146101da578063a0d79fb514610182578063a570bdcc14610157578063bc882caa146100c15763d0023fcb1461008257600080fd5b346100bc5760203660031901126100bc576001600160a01b036100a361092f565b1660005260036020526020604060002054604051908152f35b600080fd5b60203660031901126100bc57600080604051602081019063b6b55f2560e01b82526004356024820152602481526100f78161097f565b51903473532f0df0896f353d8c3dd8cc134e8129da2a39485af1610119610c80565b501561012157005b60405162461bcd60e51b815260206004820152600e60248201526d11195c1bdcda5d0819985a5b195960921b6044820152606490fd5b346100bc5760203660031901126100bc57602061017a61017561092f565b61143d565b604051908152f35b346100bc5760403660031901126100bc5761019b61092f565b6001600160a01b03166000908152600260205260409020805460243591908210156100bc576020916101cc91610b82565b90546040519160031b1c8152f35b346100bc5760203660031901126100bc576001600160a01b036101fb61092f565b1660005260046020526020604060002054604051908152f35b346100bc5760c03660031901126100bc576024356001600160a01b03811681036100bc576001600160401b03906044358281116100bc57610259903690600401610b25565b6064929192358481116100bc57610274903690600401610b52565b6084929192358681116100bc5761028f903690600401610b52565b93909260a4359788116100bc576102ad6102b8983690600401610b25565b979096600435610cf5565b005b346100bc5760603660031901126100bc576004356001600160401b0381116100bc576102ea903690600401610ade565b6044356001600160401b0381116100bc57610309903690600401610ade565b904260243511156107245761031f600054610bb0565b9081600055604051906103318261097f565b6000825260006020830152600060408301526040519161010083018381106001600160401b0382111761057257604052838352602083019433865260408401928352426060850152602435608085015260a0840152600060c084015260e083015282600052600160205260406000209382518555600185019060018060a01b039051166bffffffffffffffffffffffff60a01b825416179055519283516001600160401b038111610572576103e96002830154610945565b601f81116106dd575b506020601f821160011461066e578192939495600092610663575b50508160011b916000199060031b1c19161760028201555b606082015160038201556080820151600482015560a08201518051906001600160401b0382116105725761045c6005840154610945565b601f811161061c575b50602090601f83116001146105a957918060e0949260079460009261059e575b50508160011b916000199060031b1c19161760058201555b6006810160c0850151151560ff801983541691161790550191015160ff81511682549160208101519160058310156105885762ff0000604061ff00930151151560101b169362ffffff1916179160081b1617179055336000526002602052604060002090815491680100000000000000008310156105725782610527916001602095018155610b82565b81549060031b9083821b91600019901b19161790556040516024358152817f94c04aecc42f013fcb329d54ab685a53f3a2a84902997bdbb2addc2af8e5b9e3843393a3604051908152f35b634e487b7160e01b600052604160045260246000fd5b634e487b7160e01b600052602160045260246000fd5b015190508780610485565b90601f198316916005850160005260206000209260005b818110610604575092600192859260079660e09896106105eb575b505050811b01600582015561049d565b015160001960f88460031b161c191690558780806105db565b929360206001819287860151815501950193016105c0565b600584016000526020600020601f840160051c81016020851061065c575b601f830160051c82018110610650575050610465565b6000815560010161063a565b508061063a565b01519050858061040d565b6002830160005260206000209060005b601f19841681106106c5575060019394959683601f198116106106ac575b505050811b016002820155610425565b015160001960f88460031b161c1916905585808061069c565b9091602060018192858b01518155019301910161067e565b600283016000526020600020601f830160051c81016020841061071d575b601f830160051c820181106107115750506103f2565b600081556001016106fb565b50806106fb565b60405162461bcd60e51b815260206004820152602160248201527f556e6c6f636b2074696d65206d75737420626520696e207468652066757475726044820152606560f81b6064820152608490fd5b346100bc5760203660031901126100bc5760043560005260016020526040600020805460018060a01b036001830154166107af600284016109d6565b926003810154916004820154916107c8600582016109d6565b9460ff600683015416946007604051936107e18561097f565b01549660ff8816845260ff8860081c1695602085019660058110156105885760409a60ff9761085096610838938b52898e8a019d60101c1615158d528d519d8e6101409384938252602082015201528c0190610a9e565b9260608b015260808a015288820360a08a0152610a9e565b93151560c0870152511660e0850152519160058310156105885783926101008401525115156101208301520390f35b346100bc57602090816003193601126100bc576001600160a01b036108a261092f565b166000526002825260406000208054808352838301908192600052846000209060005b8682821061091b5786866108db828803836109b5565b604051928392818401908285525180915260408401929160005b82811061090457505050500390f35b8351855286955093810193928101926001016108f5565b8354855290930192600192830192016108c5565b600435906001600160a01b03821682036100bc57565b90600182811c92168015610975575b602083101461095f57565b634e487b7160e01b600052602260045260246000fd5b91607f1691610954565b606081019081106001600160401b0382111761057257604052565b602081019081106001600160401b0382111761057257604052565b90601f801991011681019081106001600160401b0382111761057257604052565b906040519182600082546109e981610945565b90818452602094600191600181169081600014610a595750600114610a1a575b505050610a18925003836109b5565b565b600090815285812095935091905b818310610a41575050610a189350820101388080610a09565b85548884018501529485019487945091830191610a28565b92505050610a1894925060ff191682840152151560051b820101388080610a09565b60005b838110610a8e5750506000910152565b8181015183820152602001610a7e565b90602091610ab781518092818552858086019101610a7b565b601f01601f1916010190565b6001600160401b03811161057257601f01601f191660200190565b81601f820112156100bc57803590610af582610ac3565b92610b0360405194856109b5565b828452602083830101116100bc57816000926020809301838601378301015290565b9181601f840112156100bc578235916001600160401b0383116100bc57602083818601950101116100bc57565b9181601f840112156100bc578235916001600160401b0383116100bc576020808501948460051b0101116100bc57565b8054821015610b9a5760005260206000200190600090565b634e487b7160e01b600052603260045260246000fd5b6000198114610bbf5760010190565b634e487b7160e01b600052601160045260246000fd5b908060209392818452848401376000828201840152601f01601f1916010190565b908281815260208091019360208360051b82010194846000925b858410610c21575050505050505090565b90919293949596601f198282030184528735601e19843603018112156100bc5783018681019190356001600160401b0381116100bc5780360383136100bc57610c6f88928392600195610bd5565b990194019401929594939190610c10565b3d15610cab573d90610c9182610ac3565b91610c9f60405193846109b5565b82523d6000602084013e565b606090565b81601f820112156100bc578051610cc681610ac3565b92610cd460405194856109b5565b818452602082840101116100bc57610cf29160208085019101610a7b565b90565b989295919690949789600052600160205260406000209860018060a01b0360018b01541633036114005760048a015442106113c25760ff60068b01541661137d5760405191610d438361099a565b6000835260405195610d548761099a565b6000875260405194610d658661099a565b6000865260405199606060208c0152600360808c01526267637360e81b60a08c015260a060408c0152601360c08c0152721d995a5b8bdcd95cdcda5bdb9ccb9a9cdbdb9b606a1b60e08c015260e060608c0152600a6101008c0152610120695645494e5f435245445360b01b818d01528b528a6101408101106001600160401b036101408d0111176105725760009c8d9c610e748d610fb199610e606110219f9d60e098610fc59f610e4390610f519e610e889b610140890160405260018060a01b03166101608901526103c0610180890152610520880191610bf6565b61012c6101a087015285810361015f19016101c087015291610bf6565b916101e061015f1982850301910152610a9e565b8d810361015f19016102008f015291610bd5565b8a810361015f1981016102208d015260138252720f4c2d25adee4ce5e8e989a5a685c6e5a8ca07606b1b60208301526102408c018d905261011f1981016102608d0152604082018d90526102808c018d90526110006102a08d015260ff1981016102c08d0152606082018d905260df1981016102e08d0152608082018d905260016103008d018190526103208d01526103408c018d905260bf1981016103608d0152600660a0830152656d656469756d60d01b60c0830152607f19016103808c01520191610bd5565b936060881995866103a08a015288810361015f1981016103c08b015260048252636175746f60e01b602083015261011f1981016103e08b01528a60408301528a6104008b01526102bc6104208b015260ff19016104408a01520190610a9e565b85810361015f190161046087015290610a9e565b906104808401526103e86104a08401528261100960208284039361013f19809561015f1981016104c0870152898352896104e0870152016105008501520182610a9e565b0361015f1981016101408501520161014083016109b5565b6101606101408201519101826108025af161103a610c80565b901561133f5780518101604082602083019203126100bc5760208201516001600160401b0381116100bc5781602061107492850101610cb0565b506040820151916001600160401b0383116100bc576110969201602001610cb0565b6060604080516110a58161097f565b8281528260208201520152805181019060a0818303126100bc5760208101519081151582036100bc5760408101516001600160401b0381116100bc576110f390602080860191840101610cb0565b5060608101516001600160401b0381116100bc5761111990602080860191840101610cb0565b5060808101516001600160401b0381116100bc5761113f90602080860191840101610cb0565b9260a08201516001600160401b0381116100bc5760608184018303126100bc576040519261116c8461097f565b602082820101516001600160401b0381116100bc57611195906020808601918585010101610cb0565b8452604082820101516001600160401b0381116100bc576111c0906020808601918585010101610cb0565b602085015260608282010151926001600160401b0384116100bc576040936111f093602080930193010101610cb0565b9101526112ee5750600160ff196006830154161760068201556000604080516112188161097f565b606481526001602082015201526007810161016462ffffff1982541617905560018060a01b036001820154166000526003602052604060002080549160648301809311610bbf577fa1b3fdbeef0725711f68b570d2594fb9f76409f322505748caaac1b416e47cee926040925560018060a01b036001820154166000526004602052816000206112a88154610bb0565b9055600101548151906001600160a01b0316847fdf1acd053a9eeda98d2473d7206a97d9a2642675e160695557e7436f7744a389600080a36001815260646020820152a2565b917f93adc9ba3292c08d5bac12168aae4a266d41e01cb399d5decb1288010613b44561132a600794604051918291602083526020830190610a9e565b0390a201805462ff0000191662010000179055565b60405162461bcd60e51b8152602060048201526016602482015275141c9958dbdb5c1a5b194818d85b1b0819985a5b195960521b6044820152606490fd5b60405162461bcd60e51b815260206004820152601860248201527f43617073756c6520616c72656164792072657665616c656400000000000000006044820152606490fd5b60405162461bcd60e51b815260206004820152601660248201527510d85c1cdd5b19481a5cc81d1a5b594b5b1bd8dad95960521b6044820152606490fd5b60405162461bcd60e51b815260206004820152601560248201527413db9b1e481bdddb995c8818d85b881c995d99585b605a1b6044820152606490fd5b6001600160a01b031660009081526004602052604081205415610cf257600360205260408120546004602052604082205491821561147a57500490565b634e487b7160e01b81526012600452602490fdfea264697066735822122085b16e9fdebaecbdeec6ed38518dc52a5494f43bace9f40e1d4251a68ad6568c64736f6c63430008180033","opcodes":"PUSH1 0x80 DUP1 PUSH1 0x40 MSTORE CALLVALUE PUSH2 0x16 JUMPI PUSH2 0x14C4 SWAP1 DUP2 PUSH2 0x1C DUP3 CODECOPY RETURN JUMPDEST PUSH1 0x0 DUP1 REVERT INVALID PUSH1 0x80 DUP1 PUSH1 0x40 MSTORE PUSH1 0x4 CALLDATASIZE LT ISZERO PUSH2 0x13 JUMPI PUSH1 0x0 DUP1 REVERT JUMPDEST PUSH1 0x0 CALLDATALOAD PUSH1 0xE0 SHR SWAP1 DUP2 PUSH4 0x366636F7 EQ PUSH2 0x87F JUMPI POP DUP1 PUSH4 0x517BBF46 EQ PUSH2 0x773 JUMPI DUP1 PUSH4 0x51D23FB3 EQ PUSH2 0x2BA JUMPI DUP1 PUSH4 0x66DC8031 EQ PUSH2 0x214 JUMPI DUP1 PUSH4 0x81BB42F4 EQ PUSH2 0x1DA JUMPI DUP1 PUSH4 0xA0D79FB5 EQ PUSH2 0x182 JUMPI DUP1 PUSH4 0xA570BDCC EQ PUSH2 0x157 JUMPI DUP1 PUSH4 0xBC882CAA EQ PUSH2 0xC1 JUMPI PUSH4 0xD0023FCB EQ PUSH2 0x82 JUMPI PUSH1 0x0 DUP1 REVERT JUMPDEST CALLVALUE PUSH2 0xBC JUMPI PUSH1 0x20 CALLDATASIZE PUSH1 0x3 NOT ADD SLT PUSH2 0xBC JUMPI PUSH1 0x1 PUSH1 0x1 PUSH1 0xA0 SHL SUB PUSH2 0xA3 PUSH2 0x92F JUMP JUMPDEST AND PUSH1 0x0 MSTORE PUSH1 0x3 PUSH1 0x20 MSTORE PUSH1 0x20 PUSH1 0x40 PUSH1 0x0 KECCAK256 SLOAD PUSH1 0x40 MLOAD SWAP1 DUP2 MSTORE RETURN JUMPDEST PUSH1 0x0 DUP1 REVERT JUMPDEST PUSH1 0x20 CALLDATASIZE PUSH1 0x3 NOT ADD SLT PUSH2 0xBC JUMPI PUSH1 0x0 DUP1 PUSH1 0x40 MLOAD PUSH1 0x20 DUP2 ADD SWAP1 PUSH4 0xB6B55F25 PUSH1 0xE0 SHL DUP3 MSTORE PUSH1 0x4 CALLDATALOAD PUSH1 0x24 DUP3 ADD MSTORE PUSH1 0x24 DUP2 MSTORE PUSH2 0xF7 DUP2 PUSH2 0x97F JUMP JUMPDEST MLOAD SWAP1 CALLVALUE PUSH20 0x532F0DF0896F353D8C3DD8CC134E8129DA2A3948 GAS CALL PUSH2 0x119 PUSH2 0xC80 JUMP JUMPDEST POP ISZERO PUSH2 0x121 JUMPI STOP JUMPDEST PUSH1 0x40 MLOAD PUSH3 0x461BCD PUSH1 0xE5 SHL DUP2 MSTORE PUSH1 0x20 PUSH1 0x4 DUP3 ADD MSTORE PUSH1 0xE PUSH1 0x24 DUP3 ADD MSTORE PUSH14 0x11195C1BDCDA5D0819985A5B1959 PUSH1 0x92 SHL PUSH1 0x44 DUP3 ADD MSTORE PUSH1 0x64 SWAP1 REVERT JUMPDEST CALLVALUE PUSH2 0xBC JUMPI PUSH1 0x20 CALLDATASIZE PUSH1 0x3 NOT ADD SLT PUSH2 0xBC JUMPI PUSH1 0x20 PUSH2 0x17A PUSH2 0x175 PUSH2 0x92F JUMP JUMPDEST PUSH2 0x143D JUMP JUMPDEST PUSH1 0x40 MLOAD SWAP1 DUP2 MSTORE RETURN JUMPDEST CALLVALUE PUSH2 0xBC JUMPI PUSH1 0x40 CALLDATASIZE PUSH1 0x3 NOT ADD SLT PUSH2 0xBC JUMPI PUSH2 0x19B PUSH2 0x92F JUMP JUMPDEST PUSH1 0x1 PUSH1 0x1 PUSH1 0xA0 SHL SUB AND PUSH1 0x0 SWAP1 DUP2 MSTORE PUSH1 0x2 PUSH1 0x20 MSTORE PUSH1 0x40 SWAP1 KECCAK256 DUP1 SLOAD PUSH1 0x24 CALLDATALOAD SWAP2 SWAP1 DUP3 LT ISZERO PUSH2 0xBC JUMPI PUSH1 0x20 SWAP2 PUSH2 0x1CC SWAP2 PUSH2 0xB82 JUMP JUMPDEST SWAP1 SLOAD PUSH1 0x40 MLOAD SWAP2 PUSH1 0x3 SHL SHR DUP2 MSTORE RETURN JUMPDEST CALLVALUE PUSH2 0xBC JUMPI PUSH1 0x20 CALLDATASIZE PUSH1 0x3 NOT ADD SLT PUSH2 0xBC JUMPI PUSH1 0x1 PUSH1 0x1 PUSH1 0xA0 SHL SUB PUSH2 0x1FB PUSH2 0x92F JUMP JUMPDEST AND PUSH1 0x0 MSTORE PUSH1 0x4 PUSH1 0x20 MSTORE PUSH1 0x20 PUSH1 0x40 PUSH1 0x0 KECCAK256 SLOAD PUSH1 0x40 MLOAD SWAP1 DUP2 MSTORE RETURN JUMPDEST CALLVALUE PUSH2 0xBC JUMPI PUSH1 0xC0 CALLDATASIZE PUSH1 0x3 NOT ADD SLT PUSH2 0xBC JUMPI PUSH1 0x24 CALLDATALOAD PUSH1 0x1 PUSH1 0x1 PUSH1 0xA0 SHL SUB DUP2 AND DUP2 SUB PUSH2 0xBC JUMPI PUSH1 0x1 PUSH1 0x1 PUSH1 0x40 SHL SUB SWAP1 PUSH1 0x44 CALLDATALOAD DUP3 DUP2 GT PUSH2 0xBC JUMPI PUSH2 0x259 SWAP1 CALLDATASIZE SWAP1 PUSH1 0x4 ADD PUSH2 0xB25 JUMP JUMPDEST PUSH1 0x64 SWAP3 SWAP2 SWAP3 CALLDATALOAD DUP5 DUP2 GT PUSH2 0xBC JUMPI PUSH2 0x274 SWAP1 CALLDATASIZE SWAP1 PUSH1 0x4 ADD PUSH2 0xB52 JUMP JUMPDEST PUSH1 0x84 SWAP3 SWAP2 SWAP3 CALLDATALOAD DUP7 DUP2 GT PUSH2 0xBC JUMPI PUSH2 0x28F SWAP1 CALLDATASIZE SWAP1 PUSH1 0x4 ADD PUSH2 0xB52 JUMP JUMPDEST SWAP4 SWAP1 SWAP3 PUSH1 0xA4 CALLDATALOAD SWAP8 DUP9 GT PUSH2 0xBC JUMPI PUSH2 0x2AD PUSH2 0x2B8 SWAP9 CALLDATASIZE SWAP1 PUSH1 0x4 ADD PUSH2 0xB25 JUMP JUMPDEST SWAP8 SWAP1 SWAP7 PUSH1 0x4 CALLDATALOAD PUSH2 0xCF5 JUMP JUMPDEST STOP JUMPDEST CALLVALUE PUSH2 0xBC JUMPI PUSH1 0x60 CALLDATASIZE PUSH1 0x3 NOT ADD SLT PUSH2 0xBC JUMPI PUSH1 0x4 CALLDATALOAD PUSH1 0x1 PUSH1 0x1 PUSH1 0x40 SHL SUB DUP2 GT PUSH2 0xBC JUMPI PUSH2 0x2EA SWAP1 CALLDATASIZE SWAP1 PUSH1 0x4 ADD PUSH2 0xADE JUMP JUMPDEST PUSH1 0x44 CALLDATALOAD PUSH1 0x1 PUSH1 0x1 PUSH1 0x40 SHL SUB DUP2 GT PUSH2 0xBC JUMPI PUSH2 0x309 SWAP1 CALLDATASIZE SWAP1 PUSH1 0x4 ADD PUSH2 0xADE JUMP JUMPDEST SWAP1 TIMESTAMP PUSH1 0x24 CALLDATALOAD GT ISZERO PUSH2 0x724 JUMPI PUSH2 0x31F PUSH1 0x0 SLOAD PUSH2 0xBB0 JUMP JUMPDEST SWAP1 DUP2 PUSH1 0x0 SSTORE PUSH1 0x40 MLOAD SWAP1 PUSH2 0x331 DUP3 PUSH2 0x97F JUMP JUMPDEST PUSH1 0x0 DUP3 MSTORE PUSH1 0x0 PUSH1 0x20 DUP4 ADD MSTORE PUSH1 0x0 PUSH1 0x40 DUP4 ADD MSTORE PUSH1 0x40 MLOAD SWAP2 PUSH2 0x100 DUP4 ADD DUP4 DUP2 LT PUSH1 0x1 PUSH1 0x1 PUSH1 0x40 SHL SUB DUP3 GT OR PUSH2 0x572 JUMPI PUSH1 0x40 MSTORE DUP4 DUP4 MSTORE PUSH1 0x20 DUP4 ADD SWAP5 CALLER DUP7 MSTORE PUSH1 0x40 DUP5 ADD SWAP3 DUP4 MSTORE TIMESTAMP PUSH1 0x60 DUP6 ADD MSTORE PUSH1 0x24 CALLDATALOAD PUSH1 0x80 DUP6 ADD MSTORE PUSH1 0xA0 DUP5 ADD MSTORE PUSH1 0x0 PUSH1 0xC0 DUP5 ADD MSTORE PUSH1 0xE0 DUP4 ADD MSTORE DUP3 PUSH1 0x0 MSTORE PUSH1 0x1 PUSH1 0x20 MSTORE PUSH1 0x40 PUSH1 0x0 KECCAK256 SWAP4 DUP3 MLOAD DUP6 SSTORE PUSH1 0x1 DUP6 ADD SWAP1 PUSH1 0x1 DUP1 PUSH1 0xA0 SHL SUB SWAP1 MLOAD AND PUSH12 0xFFFFFFFFFFFFFFFFFFFFFFFF PUSH1 0xA0 SHL DUP3 SLOAD AND OR SWAP1 SSTORE MLOAD SWAP3 DUP4 MLOAD PUSH1 0x1 PUSH1 0x1 PUSH1 0x40 SHL SUB DUP2 GT PUSH2 0x572 JUMPI PUSH2 0x3E9 PUSH1 0x2 DUP4 ADD SLOAD PUSH2 0x945 JUMP JUMPDEST PUSH1 0x1F DUP2 GT PUSH2 0x6DD JUMPI JUMPDEST POP PUSH1 0x20 PUSH1 0x1F DUP3 GT PUSH1 0x1 EQ PUSH2 0x66E JUMPI DUP2 SWAP3 SWAP4 SWAP5 SWAP6 PUSH1 0x0 SWAP3 PUSH2 0x663 JUMPI JUMPDEST POP POP DUP2 PUSH1 0x1 SHL SWAP2 PUSH1 0x0 NOT SWAP1 PUSH1 0x3 SHL SHR NOT AND OR PUSH1 0x2 DUP3 ADD SSTORE JUMPDEST PUSH1 0x60 DUP3 ADD MLOAD PUSH1 0x3 DUP3 ADD SSTORE PUSH1 0x80 DUP3 ADD MLOAD PUSH1 0x4 DUP3 ADD SSTORE PUSH1 0xA0 DUP3 ADD MLOAD DUP1 MLOAD SWAP1 PUSH1 0x1 PUSH1 0x1 PUSH1 0x40 SHL SUB DUP3 GT PUSH2 0x572 JUMPI PUSH2 0x45C PUSH1 0x5 DUP5 ADD SLOAD PUSH2 0x945 JUMP JUMPDEST PUSH1 0x1F DUP2 GT PUSH2 0x61C JUMPI JUMPDEST POP PUSH1 0x20 SWAP1 PUSH1 0x1F DUP4 GT PUSH1 0x1 EQ PUSH2 0x5A9 JUMPI SWAP2 DUP1 PUSH1 0xE0 SWAP5 SWAP3 PUSH1 0x7 SWAP5 PUSH1 0x0 SWAP3 PUSH2 0x59E JUMPI JUMPDEST POP POP DUP2 PUSH1 0x1 SHL SWAP2 PUSH1 0x0 NOT SWAP1 PUSH1 0x3 SHL SHR NOT AND OR PUSH1 0x5 DUP3 ADD SSTORE JUMPDEST PUSH1 0x6 DUP2 ADD PUSH1 0xC0 DUP6 ADD MLOAD ISZERO ISZERO PUSH1 0xFF DUP1 NOT DUP4 SLOAD AND SWAP2 AND OR SWAP1 SSTORE ADD SWAP2 ADD MLOAD PUSH1 0xFF DUP2 MLOAD AND DUP3 SLOAD SWAP2 PUSH1 0x20 DUP2 ADD MLOAD SWAP2 PUSH1 0x5 DUP4 LT ISZERO PUSH2 0x588 JUMPI PUSH3 0xFF0000 PUSH1 0x40 PUSH2 0xFF00 SWAP4 ADD MLOAD ISZERO ISZERO PUSH1 0x10 SHL AND SWAP4 PUSH3 0xFFFFFF NOT AND OR SWAP2 PUSH1 0x8 SHL AND OR OR SWAP1 SSTORE CALLER PUSH1 0x0 MSTORE PUSH1 0x2 PUSH1 0x20 MSTORE PUSH1 0x40 PUSH1 0x0 KECCAK256 SWAP1 DUP2 SLOAD SWAP2 PUSH9 0x10000000000000000 DUP4 LT ISZERO PUSH2 0x572 JUMPI DUP3 PUSH2 0x527 SWAP2 PUSH1 0x1 PUSH1 0x20 SWAP6 ADD DUP2 SSTORE PUSH2 0xB82 JUMP JUMPDEST DUP2 SLOAD SWAP1 PUSH1 0x3 SHL SWAP1 DUP4 DUP3 SHL SWAP2 PUSH1 0x0 NOT SWAP1 SHL NOT AND OR SWAP1 SSTORE PUSH1 0x40 MLOAD PUSH1 0x24 CALLDATALOAD DUP2 MSTORE DUP2 PUSH32 0x94C04AECC42F013FCB329D54AB685A53F3A2A84902997BDBB2ADDC2AF8E5B9E3 DUP5 CALLER SWAP4 LOG3 PUSH1 0x40 MLOAD SWAP1 DUP2 MSTORE RETURN JUMPDEST PUSH4 0x4E487B71 PUSH1 0xE0 SHL PUSH1 0x0 MSTORE PUSH1 0x41 PUSH1 0x4 MSTORE PUSH1 0x24 PUSH1 0x0 REVERT JUMPDEST PUSH4 0x4E487B71 PUSH1 0xE0 SHL PUSH1 0x0 MSTORE PUSH1 0x21 PUSH1 0x4 MSTORE PUSH1 0x24 PUSH1 0x0 REVERT JUMPDEST ADD MLOAD SWAP1 POP DUP8 DUP1 PUSH2 0x485 JUMP JUMPDEST SWAP1 PUSH1 0x1F NOT DUP4 AND SWAP2 PUSH1 0x5 DUP6 ADD PUSH1 0x0 MSTORE PUSH1 0x20 PUSH1 0x0 KECCAK256 SWAP3 PUSH1 0x0 JUMPDEST DUP2 DUP2 LT PUSH2 0x604 JUMPI POP SWAP3 PUSH1 0x1 SWAP3 DUP6 SWAP3 PUSH1 0x7 SWAP7 PUSH1 0xE0 SWAP9 SWAP7 LT PUSH2 0x5EB JUMPI JUMPDEST POP POP POP DUP2 SHL ADD PUSH1 0x5 DUP3 ADD SSTORE PUSH2 0x49D JUMP JUMPDEST ADD MLOAD PUSH1 0x0 NOT PUSH1 0xF8 DUP5 PUSH1 0x3 SHL AND SHR NOT AND SWAP1 SSTORE DUP8 DUP1 DUP1 PUSH2 0x5DB JUMP JUMPDEST SWAP3 SWAP4 PUSH1 0x20 PUSH1 0x1 DUP2 SWAP3 DUP8 DUP7 ADD MLOAD DUP2 SSTORE ADD SWAP6 ADD SWAP4 ADD PUSH2 0x5C0 JUMP JUMPDEST PUSH1 0x5 DUP5 ADD PUSH1 0x0 MSTORE PUSH1 0x20 PUSH1 0x0 KECCAK256 PUSH1 0x1F DUP5 ADD PUSH1 0x5 SHR DUP2 ADD PUSH1 0x20 DUP6 LT PUSH2 0x65C JUMPI JUMPDEST PUSH1 0x1F DUP4 ADD PUSH1 0x5 SHR DUP3 ADD DUP2 LT PUSH2 0x650 JUMPI POP POP PUSH2 0x465 JUMP JUMPDEST PUSH1 0x0 DUP2 SSTORE PUSH1 0x1 ADD PUSH2 0x63A JUMP JUMPDEST POP DUP1 PUSH2 0x63A JUMP JUMPDEST ADD MLOAD SWAP1 POP DUP6 DUP1 PUSH2 0x40D JUMP JUMPDEST PUSH1 0x2 DUP4 ADD PUSH1 0x0 MSTORE PUSH1 0x20 PUSH1 0x0 KECCAK256 SWAP1 PUSH1 0x0 JUMPDEST PUSH1 0x1F NOT DUP5 AND DUP2 LT PUSH2 0x6C5 JUMPI POP PUSH1 0x1 SWAP4 SWAP5 SWAP6 SWAP7 DUP4 PUSH1 0x1F NOT DUP2 AND LT PUSH2 0x6AC JUMPI JUMPDEST POP POP POP DUP2 SHL ADD PUSH1 0x2 DUP3 ADD SSTORE PUSH2 0x425 JUMP JUMPDEST ADD MLOAD PUSH1 0x0 NOT PUSH1 0xF8 DUP5 PUSH1 0x3 SHL AND SHR NOT AND SWAP1 SSTORE DUP6 DUP1 DUP1 PUSH2 0x69C JUMP JUMPDEST SWAP1 SWAP2 PUSH1 0x20 PUSH1 0x1 DUP2 SWAP3 DUP6 DUP12 ADD MLOAD DUP2 SSTORE ADD SWAP4 ADD SWAP2 ADD PUSH2 0x67E JUMP JUMPDEST PUSH1 0x2 DUP4 ADD PUSH1 0x0 MSTORE PUSH1 0x20 PUSH1 0x0 KECCAK256 PUSH1 0x1F DUP4 ADD PUSH1 0x5 SHR DUP2 ADD PUSH1 0x20 DUP5 LT PUSH2 0x71D JUMPI JUMPDEST PUSH1 0x1F DUP4 ADD PUSH1 0x5 SHR DUP3 ADD DUP2 LT PUSH2 0x711 JUMPI POP POP PUSH2 0x3F2 JUMP JUMPDEST PUSH1 0x0 DUP2 SSTORE PUSH1 0x1 ADD PUSH2 0x6FB JUMP JUMPDEST POP DUP1 PUSH2 0x6FB JUMP JUMPDEST PUSH1 0x40 MLOAD PUSH3 0x461BCD PUSH1 0xE5 SHL DUP2 MSTORE PUSH1 0x20 PUSH1 0x4 DUP3 ADD MSTORE PUSH1 0x21 PUSH1 0x24 DUP3 ADD MSTORE PUSH32 0x556E6C6F636B2074696D65206D75737420626520696E20746865206675747572 PUSH1 0x44 DUP3 ADD MSTORE PUSH1 0x65 PUSH1 0xF8 SHL PUSH1 0x64 DUP3 ADD MSTORE PUSH1 0x84 SWAP1 REVERT JUMPDEST CALLVALUE PUSH2 0xBC JUMPI PUSH1 0x20 CALLDATASIZE PUSH1 0x3 NOT ADD SLT PUSH2 0xBC JUMPI PUSH1 0x4 CALLDATALOAD PUSH1 0x0 MSTORE PUSH1 0x1 PUSH1 0x20 MSTORE PUSH1 0x40 PUSH1 0x0 KECCAK256 DUP1 SLOAD PUSH1 0x1 DUP1 PUSH1 0xA0 SHL SUB PUSH1 0x1 DUP4 ADD SLOAD AND PUSH2 0x7AF PUSH1 0x2 DUP5 ADD PUSH2 0x9D6 JUMP JUMPDEST SWAP3 PUSH1 0x3 DUP2 ADD SLOAD SWAP2 PUSH1 0x4 DUP3 ADD SLOAD SWAP2 PUSH2 0x7C8 PUSH1 0x5 DUP3 ADD PUSH2 0x9D6 JUMP JUMPDEST SWAP5 PUSH1 0xFF PUSH1 0x6 DUP4 ADD SLOAD AND SWAP5 PUSH1 0x7 PUSH1 0x40 MLOAD SWAP4 PUSH2 0x7E1 DUP6 PUSH2 0x97F JUMP JUMPDEST ADD SLOAD SWAP7 PUSH1 0xFF DUP9 AND DUP5 MSTORE PUSH1 0xFF DUP9 PUSH1 0x8 SHR AND SWAP6 PUSH1 0x20 DUP6 ADD SWAP7 PUSH1 0x5 DUP2 LT ISZERO PUSH2 0x588 JUMPI PUSH1 0x40 SWAP11 PUSH1 0xFF SWAP8 PUSH2 0x850 SWAP7 PUSH2 0x838 SWAP4 DUP12 MSTORE DUP10 DUP15 DUP11 ADD SWAP14 PUSH1 0x10 SHR AND ISZERO ISZERO DUP14 MSTORE DUP14 MLOAD SWAP14 DUP15 PUSH2 0x140 SWAP4 DUP5 SWAP4 DUP3 MSTORE PUSH1 0x20 DUP3 ADD MSTORE ADD MSTORE DUP13 ADD SWAP1 PUSH2 0xA9E JUMP JUMPDEST SWAP3 PUSH1 0x60 DUP12 ADD MSTORE PUSH1 0x80 DUP11 ADD MSTORE DUP9 DUP3 SUB PUSH1 0xA0 DUP11 ADD MSTORE PUSH2 0xA9E JUMP JUMPDEST SWAP4 ISZERO ISZERO PUSH1 0xC0 DUP8 ADD MSTORE MLOAD AND PUSH1 0xE0 DUP6 ADD MSTORE MLOAD SWAP2 PUSH1 0x5 DUP4 LT ISZERO PUSH2 0x588 JUMPI DUP4 SWAP3 PUSH2 0x100 DUP5 ADD MSTORE MLOAD ISZERO ISZERO PUSH2 0x120 DUP4 ADD MSTORE SUB SWAP1 RETURN JUMPDEST CALLVALUE PUSH2 0xBC JUMPI PUSH1 0x20 SWAP1 DUP2 PUSH1 0x3 NOT CALLDATASIZE ADD SLT PUSH2 0xBC JUMPI PUSH1 0x1 PUSH1 0x1 PUSH1 0xA0 SHL SUB PUSH2 0x8A2 PUSH2 0x92F JUMP JUMPDEST AND PUSH1 0x0 MSTORE PUSH1 0x2 DUP3 MSTORE PUSH1 0x40 PUSH1 0x0 KECCAK256 DUP1 SLOAD DUP1 DUP4 MSTORE DUP4 DUP4 ADD SWAP1 DUP2 SWAP3 PUSH1 0x0 MSTORE DUP5 PUSH1 0x0 KECCAK256 SWAP1 PUSH1 0x0 JUMPDEST DUP7 DUP3 DUP3 LT PUSH2 0x91B JUMPI DUP7 DUP7 PUSH2 0x8DB DUP3 DUP9 SUB DUP4 PUSH2 0x9B5 JUMP JUMPDEST PUSH1 0x40 MLOAD SWAP3 DUP4 SWAP3 DUP2 DUP5 ADD SWAP1 DUP3 DUP6 MSTORE MLOAD DUP1 SWAP2 MSTORE PUSH1 0x40 DUP5 ADD SWAP3 SWAP2 PUSH1 0x0 JUMPDEST DUP3 DUP2 LT PUSH2 0x904 JUMPI POP POP POP POP SUB SWAP1 RETURN JUMPDEST DUP4 MLOAD DUP6 MSTORE DUP7 SWAP6 POP SWAP4 DUP2 ADD SWAP4 SWAP3 DUP2 ADD SWAP3 PUSH1 0x1 ADD PUSH2 0x8F5 JUMP JUMPDEST DUP4 SLOAD DUP6 MSTORE SWAP1 SWAP4 ADD SWAP3 PUSH1 0x1 SWAP3 DUP4 ADD SWAP3 ADD PUSH2 0x8C5 JUMP JUMPDEST PUSH1 0x4 CALLDATALOAD SWAP1 PUSH1 0x1 PUSH1 0x1 PUSH1 0xA0 SHL SUB DUP3 AND DUP3 SUB PUSH2 0xBC JUMPI JUMP JUMPDEST SWAP1 PUSH1 0x1 DUP3 DUP2 SHR SWAP3 AND DUP1 ISZERO PUSH2 0x975 JUMPI JUMPDEST PUSH1 0x20 DUP4 LT EQ PUSH2 0x95F JUMPI JUMP JUMPDEST PUSH4 0x4E487B71 PUSH1 0xE0 SHL PUSH1 0x0 MSTORE PUSH1 0x22 PUSH1 0x4 MSTORE PUSH1 0x24 PUSH1 0x0 REVERT JUMPDEST SWAP2 PUSH1 0x7F AND SWAP2 PUSH2 0x954 JUMP JUMPDEST PUSH1 0x60 DUP2 ADD SWAP1 DUP2 LT PUSH1 0x1 PUSH1 0x1 PUSH1 0x40 SHL SUB DUP3 GT OR PUSH2 0x572 JUMPI PUSH1 0x40 MSTORE JUMP JUMPDEST PUSH1 0x20 DUP2 ADD SWAP1 DUP2 LT PUSH1 0x1 PUSH1 0x1 PUSH1 0x40 SHL SUB DUP3 GT OR PUSH2 0x572 JUMPI PUSH1 0x40 MSTORE JUMP JUMPDEST SWAP1 PUSH1 0x1F DUP1 NOT SWAP2 ADD AND DUP2 ADD SWAP1 DUP2 LT PUSH1 0x1 PUSH1 0x1 PUSH1 0x40 SHL SUB DUP3 GT OR PUSH2 0x572 JUMPI PUSH1 0x40 MSTORE JUMP JUMPDEST SWAP1 PUSH1 0x40 MLOAD SWAP2 DUP3 PUSH1 0x0 DUP3 SLOAD PUSH2 0x9E9 DUP2 PUSH2 0x945 JUMP JUMPDEST SWAP1 DUP2 DUP5 MSTORE PUSH1 0x20 SWAP5 PUSH1 0x1 SWAP2 PUSH1 0x1 DUP2 AND SWAP1 DUP2 PUSH1 0x0 EQ PUSH2 0xA59 JUMPI POP PUSH1 0x1 EQ PUSH2 0xA1A JUMPI JUMPDEST POP POP POP PUSH2 0xA18 SWAP3 POP SUB DUP4 PUSH2 0x9B5 JUMP JUMPDEST JUMP JUMPDEST PUSH1 0x0 SWAP1 DUP2 MSTORE DUP6 DUP2 KECCAK256 SWAP6 SWAP4 POP SWAP2 SWAP1 JUMPDEST DUP2 DUP4 LT PUSH2 0xA41 JUMPI POP POP PUSH2 0xA18 SWAP4 POP DUP3 ADD ADD CODESIZE DUP1 DUP1 PUSH2 0xA09 JUMP JUMPDEST DUP6 SLOAD DUP9 DUP5 ADD DUP6 ADD MSTORE SWAP5 DUP6 ADD SWAP5 DUP8 SWAP5 POP SWAP2 DUP4 ADD SWAP2 PUSH2 0xA28 JUMP JUMPDEST SWAP3 POP POP POP PUSH2 0xA18 SWAP5 SWAP3 POP PUSH1 0xFF NOT AND DUP3 DUP5 ADD MSTORE ISZERO ISZERO PUSH1 0x5 SHL DUP3 ADD ADD CODESIZE DUP1 DUP1 PUSH2 0xA09 JUMP JUMPDEST PUSH1 0x0 JUMPDEST DUP4 DUP2 LT PUSH2 0xA8E JUMPI POP POP PUSH1 0x0 SWAP2 ADD MSTORE JUMP JUMPDEST DUP2 DUP2 ADD MLOAD DUP4 DUP3 ADD MSTORE PUSH1 0x20 ADD PUSH2 0xA7E JUMP JUMPDEST SWAP1 PUSH1 0x20 SWAP2 PUSH2 0xAB7 DUP2 MLOAD DUP1 SWAP3 DUP2 DUP6 MSTORE DUP6 DUP1 DUP7 ADD SWAP2 ADD PUSH2 0xA7B JUMP JUMPDEST PUSH1 0x1F ADD PUSH1 0x1F NOT AND ADD ADD SWAP1 JUMP JUMPDEST PUSH1 0x1 PUSH1 0x1 PUSH1 0x40 SHL SUB DUP2 GT PUSH2 0x572 JUMPI PUSH1 0x1F ADD PUSH1 0x1F NOT AND PUSH1 0x20 ADD SWAP1 JUMP JUMPDEST DUP2 PUSH1 0x1F DUP3 ADD SLT ISZERO PUSH2 0xBC JUMPI DUP1 CALLDATALOAD SWAP1 PUSH2 0xAF5 DUP3 PUSH2 0xAC3 JUMP JUMPDEST SWAP3 PUSH2 0xB03 PUSH1 0x40 MLOAD SWAP5 DUP6 PUSH2 0x9B5 JUMP JUMPDEST DUP3 DUP5 MSTORE PUSH1 0x20 DUP4 DUP4 ADD ADD GT PUSH2 0xBC JUMPI DUP2 PUSH1 0x0 SWAP3 PUSH1 0x20 DUP1 SWAP4 ADD DUP4 DUP7 ADD CALLDATACOPY DUP4 ADD ADD MSTORE SWAP1 JUMP JUMPDEST SWAP2 DUP2 PUSH1 0x1F DUP5 ADD SLT ISZERO PUSH2 0xBC JUMPI DUP3 CALLDATALOAD SWAP2 PUSH1 0x1 PUSH1 0x1 PUSH1 0x40 SHL SUB DUP4 GT PUSH2 0xBC JUMPI PUSH1 0x20 DUP4 DUP2 DUP7 ADD SWAP6 ADD ADD GT PUSH2 0xBC JUMPI JUMP JUMPDEST SWAP2 DUP2 PUSH1 0x1F DUP5 ADD SLT ISZERO PUSH2 0xBC JUMPI DUP3 CALLDATALOAD SWAP2 PUSH1 0x1 PUSH1 0x1 PUSH1 0x40 SHL SUB DUP4 GT PUSH2 0xBC JUMPI PUSH1 0x20 DUP1 DUP6 ADD SWAP5 DUP5 PUSH1 0x5 SHL ADD ADD GT PUSH2 0xBC JUMPI JUMP JUMPDEST DUP1 SLOAD DUP3 LT ISZERO PUSH2 0xB9A JUMPI PUSH1 0x0 MSTORE PUSH1 0x20 PUSH1 0x0 KECCAK256 ADD SWAP1 PUSH1 0x0 SWAP1 JUMP JUMPDEST PUSH4 0x4E487B71 PUSH1 0xE0 SHL PUSH1 0x0 MSTORE PUSH1 0x32 PUSH1 0x4 MSTORE PUSH1 0x24 PUSH1 0x0 REVERT JUMPDEST PUSH1 0x0 NOT DUP2 EQ PUSH2 0xBBF JUMPI PUSH1 0x1 ADD SWAP1 JUMP JUMPDEST PUSH4 0x4E487B71 PUSH1 0xE0 SHL PUSH1 0x0 MSTORE PUSH1 0x11 PUSH1 0x4 MSTORE PUSH1 0x24 PUSH1 0x0 REVERT JUMPDEST SWAP1 DUP1 PUSH1 0x20 SWAP4 SWAP3 DUP2 DUP5 MSTORE DUP5 DUP5 ADD CALLDATACOPY PUSH1 0x0 DUP3 DUP3 ADD DUP5 ADD MSTORE PUSH1 0x1F ADD PUSH1 0x1F NOT AND ADD ADD SWAP1 JUMP JUMPDEST SWAP1 DUP3 DUP2 DUP2 MSTORE PUSH1 0x20 DUP1 SWAP2 ADD SWAP4 PUSH1 0x20 DUP4 PUSH1 0x5 SHL DUP3 ADD ADD SWAP5 DUP5 PUSH1 0x0 SWAP3 JUMPDEST DUP6 DUP5 LT PUSH2 0xC21 JUMPI POP POP POP POP POP POP POP SWAP1 JUMP JUMPDEST SWAP1 SWAP2 SWAP3 SWAP4 SWAP5 SWAP6 SWAP7 PUSH1 0x1F NOT DUP3 DUP3 SUB ADD DUP5 MSTORE DUP8 CALLDATALOAD PUSH1 0x1E NOT DUP5 CALLDATASIZE SUB ADD DUP2 SLT ISZERO PUSH2 0xBC JUMPI DUP4 ADD DUP7 DUP2 ADD SWAP2 SWAP1 CALLDATALOAD PUSH1 0x1 PUSH1 0x1 PUSH1 0x40 SHL SUB DUP2 GT PUSH2 0xBC JUMPI DUP1 CALLDATASIZE SUB DUP4 SGT PUSH2 0xBC JUMPI PUSH2 0xC6F DUP9 SWAP3 DUP4 SWAP3 PUSH1 0x1 SWAP6 PUSH2 0xBD5 JUMP JUMPDEST SWAP10 ADD SWAP5 ADD SWAP5 ADD SWAP3 SWAP6 SWAP5 SWAP4 SWAP2 SWAP1 PUSH2 0xC10 JUMP JUMPDEST RETURNDATASIZE ISZERO PUSH2 0xCAB JUMPI RETURNDATASIZE SWAP1 PUSH2 0xC91 DUP3 PUSH2 0xAC3 JUMP JUMPDEST SWAP2 PUSH2 0xC9F PUSH1 0x40 MLOAD SWAP4 DUP5 PUSH2 0x9B5 JUMP JUMPDEST DUP3 MSTORE RETURNDATASIZE PUSH1 0x0 PUSH1 0x20 DUP5 ADD RETURNDATACOPY JUMP JUMPDEST PUSH1 0x60 SWAP1 JUMP JUMPDEST DUP2 PUSH1 0x1F DUP3 ADD SLT ISZERO PUSH2 0xBC JUMPI DUP1 MLOAD PUSH2 0xCC6 DUP2 PUSH2 0xAC3 JUMP JUMPDEST SWAP3 PUSH2 0xCD4 PUSH1 0x40 MLOAD SWAP5 DUP6 PUSH2 0x9B5 JUMP JUMPDEST DUP2 DUP5 MSTORE PUSH1 0x20 DUP3 DUP5 ADD ADD GT PUSH2 0xBC JUMPI PUSH2 0xCF2 SWAP2 PUSH1 0x20 DUP1 DUP6 ADD SWAP2 ADD PUSH2 0xA7B JUMP JUMPDEST SWAP1 JUMP JUMPDEST SWAP9 SWAP3 SWAP6 SWAP2 SWAP7 SWAP1 SWAP5 SWAP8 DUP10 PUSH1 0x0 MSTORE PUSH1 0x1 PUSH1 0x20 MSTORE PUSH1 0x40 PUSH1 0x0 KECCAK256 SWAP9 PUSH1 0x1 DUP1 PUSH1 0xA0 SHL SUB PUSH1 0x1 DUP12 ADD SLOAD AND CALLER SUB PUSH2 0x1400 JUMPI PUSH1 0x4 DUP11 ADD SLOAD TIMESTAMP LT PUSH2 0x13C2 JUMPI PUSH1 0xFF PUSH1 0x6 DUP12 ADD SLOAD AND PUSH2 0x137D JUMPI PUSH1 0x40 MLOAD SWAP2 PUSH2 0xD43 DUP4 PUSH2 0x99A JUMP JUMPDEST PUSH1 0x0 DUP4 MSTORE PUSH1 0x40 MLOAD SWAP6 PUSH2 0xD54 DUP8 PUSH2 0x99A JUMP JUMPDEST PUSH1 0x0 DUP8 MSTORE PUSH1 0x40 MLOAD SWAP5 PUSH2 0xD65 DUP7 PUSH2 0x99A JUMP JUMPDEST PUSH1 0x0 DUP7 MSTORE PUSH1 0x40 MLOAD SWAP10 PUSH1 0x60 PUSH1 0x20 DUP13 ADD MSTORE PUSH1 0x3 PUSH1 0x80 DUP13 ADD MSTORE PUSH3 0x676373 PUSH1 0xE8 SHL PUSH1 0xA0 DUP13 ADD MSTORE PUSH1 0xA0 PUSH1 0x40 DUP13 ADD MSTORE PUSH1 0x13 PUSH1 0xC0 DUP13 ADD MSTORE PUSH19 0x1D995A5B8BDCD95CDCDA5BDB9CCB9A9CDBDB9B PUSH1 0x6A SHL PUSH1 0xE0 DUP13 ADD MSTORE PUSH1 0xE0 PUSH1 0x60 DUP13 ADD MSTORE PUSH1 0xA PUSH2 0x100 DUP13 ADD MSTORE PUSH2 0x120 PUSH10 0x5645494E5F4352454453 PUSH1 0xB0 SHL DUP2 DUP14 ADD MSTORE DUP12 MSTORE DUP11 PUSH2 0x140 DUP2 ADD LT PUSH1 0x1 PUSH1 0x1 PUSH1 0x40 SHL SUB PUSH2 0x140 DUP14 ADD GT OR PUSH2 0x572 JUMPI PUSH1 0x0 SWAP13 DUP14 SWAP13 PUSH2 0xE74 DUP14 PUSH2 0xFB1 SWAP10 PUSH2 0xE60 PUSH2 0x1021 SWAP16 SWAP14 PUSH1 0xE0 SWAP9 PUSH2 0xFC5 SWAP16 PUSH2 0xE43 SWAP1 PUSH2 0xF51 SWAP15 PUSH2 0xE88 SWAP12 PUSH2 0x140 DUP10 ADD PUSH1 0x40 MSTORE PUSH1 0x1 DUP1 PUSH1 0xA0 SHL SUB AND PUSH2 0x160 DUP10 ADD MSTORE PUSH2 0x3C0 PUSH2 0x180 DUP10 ADD MSTORE PUSH2 0x520 DUP9 ADD SWAP2 PUSH2 0xBF6 JUMP JUMPDEST PUSH2 0x12C PUSH2 0x1A0 DUP8 ADD MSTORE DUP6 DUP2 SUB PUSH2 0x15F NOT ADD PUSH2 0x1C0 DUP8 ADD MSTORE SWAP2 PUSH2 0xBF6 JUMP JUMPDEST SWAP2 PUSH2 0x1E0 PUSH2 0x15F NOT DUP3 DUP6 SUB ADD SWAP2 ADD MSTORE PUSH2 0xA9E JUMP JUMPDEST DUP14 DUP2 SUB PUSH2 0x15F NOT ADD PUSH2 0x200 DUP16 ADD MSTORE SWAP2 PUSH2 0xBD5 JUMP JUMPDEST DUP11 DUP2 SUB PUSH2 0x15F NOT DUP2 ADD PUSH2 0x220 DUP14 ADD MSTORE PUSH1 0x13 DUP3 MSTORE PUSH19 0xF4C2D25ADEE4CE5E8E989A5A685C6E5A8CA07 PUSH1 0x6B SHL PUSH1 0x20 DUP4 ADD MSTORE PUSH2 0x240 DUP13 ADD DUP14 SWAP1 MSTORE PUSH2 0x11F NOT DUP2 ADD PUSH2 0x260 DUP14 ADD MSTORE PUSH1 0x40 DUP3 ADD DUP14 SWAP1 MSTORE PUSH2 0x280 DUP13 ADD DUP14 SWAP1 MSTORE PUSH2 0x1000 PUSH2 0x2A0 DUP14 ADD MSTORE PUSH1 0xFF NOT DUP2 ADD PUSH2 0x2C0 DUP14 ADD MSTORE PUSH1 0x60 DUP3 ADD DUP14 SWAP1 MSTORE PUSH1 0xDF NOT DUP2 ADD PUSH2 0x2E0 DUP14 ADD MSTORE PUSH1 0x80 DUP3 ADD DUP14 SWAP1 MSTORE PUSH1 0x1 PUSH2 0x300 DUP14 ADD DUP2 SWAP1 MSTORE PUSH2 0x320 DUP14 ADD MSTORE PUSH2 0x340 DUP13 ADD DUP14 SWAP1 MSTORE PUSH1 0xBF NOT DUP2 ADD PUSH2 0x360 DUP14 ADD MSTORE PUSH1 0x6 PUSH1 0xA0 DUP4 ADD MSTORE PUSH6 0x6D656469756D PUSH1 0xD0 SHL PUSH1 0xC0 DUP4 ADD MSTORE PUSH1 0x7F NOT ADD PUSH2 0x380 DUP13 ADD MSTORE ADD SWAP2 PUSH2 0xBD5 JUMP JUMPDEST SWAP4 PUSH1 0x60 DUP9 NOT SWAP6 DUP7 PUSH2 0x3A0 DUP11 ADD MSTORE DUP9 DUP2 SUB PUSH2 0x15F NOT DUP2 ADD PUSH2 0x3C0 DUP12 ADD MSTORE PUSH1 0x4 DUP3 MSTORE PUSH4 0x6175746F PUSH1 0xE0 SHL PUSH1 0x20 DUP4 ADD MSTORE PUSH2 0x11F NOT DUP2 ADD PUSH2 0x3E0 DUP12 ADD MSTORE DUP11 PUSH1 0x40 DUP4 ADD MSTORE DUP11 PUSH2 0x400 DUP12 ADD MSTORE PUSH2 0x2BC PUSH2 0x420 DUP12 ADD MSTORE PUSH1 0xFF NOT ADD PUSH2 0x440 DUP11 ADD MSTORE ADD SWAP1 PUSH2 0xA9E JUMP JUMPDEST DUP6 DUP2 SUB PUSH2 0x15F NOT ADD PUSH2 0x460 DUP8 ADD MSTORE SWAP1 PUSH2 0xA9E JUMP JUMPDEST SWAP1 PUSH2 0x480 DUP5 ADD MSTORE PUSH2 0x3E8 PUSH2 0x4A0 DUP5 ADD MSTORE DUP3 PUSH2 0x1009 PUSH1 0x20 DUP3 DUP5 SUB SWAP4 PUSH2 0x13F NOT DUP1 SWAP6 PUSH2 0x15F NOT DUP2 ADD PUSH2 0x4C0 DUP8 ADD MSTORE DUP10 DUP4 MSTORE DUP10 PUSH2 0x4E0 DUP8 ADD MSTORE ADD PUSH2 0x500 DUP6 ADD MSTORE ADD DUP3 PUSH2 0xA9E JUMP JUMPDEST SUB PUSH2 0x15F NOT DUP2 ADD PUSH2 0x140 DUP6 ADD MSTORE ADD PUSH2 0x140 DUP4 ADD PUSH2 0x9B5 JUMP JUMPDEST PUSH2 0x160 PUSH2 0x140 DUP3 ADD MLOAD SWAP2 ADD DUP3 PUSH2 0x802 GAS CALL PUSH2 0x103A PUSH2 0xC80 JUMP JUMPDEST SWAP1 ISZERO PUSH2 0x133F JUMPI DUP1 MLOAD DUP2 ADD PUSH1 0x40 DUP3 PUSH1 0x20 DUP4 ADD SWAP3 SUB SLT PUSH2 0xBC JUMPI PUSH1 0x20 DUP3 ADD MLOAD PUSH1 0x1 PUSH1 0x1 PUSH1 0x40 SHL SUB DUP2 GT PUSH2 0xBC JUMPI DUP2 PUSH1 0x20 PUSH2 0x1074 SWAP3 DUP6 ADD ADD PUSH2 0xCB0 JUMP JUMPDEST POP PUSH1 0x40 DUP3 ADD MLOAD SWAP2 PUSH1 0x1 PUSH1 0x1 PUSH1 0x40 SHL SUB DUP4 GT PUSH2 0xBC JUMPI PUSH2 0x1096 SWAP3 ADD PUSH1 0x20 ADD PUSH2 0xCB0 JUMP JUMPDEST PUSH1 0x60 PUSH1 0x40 DUP1 MLOAD PUSH2 0x10A5 DUP2 PUSH2 0x97F JUMP JUMPDEST DUP3 DUP2 MSTORE DUP3 PUSH1 0x20 DUP3 ADD MSTORE ADD MSTORE DUP1 MLOAD DUP2 ADD SWAP1 PUSH1 0xA0 DUP2 DUP4 SUB SLT PUSH2 0xBC JUMPI PUSH1 0x20 DUP2 ADD MLOAD SWAP1 DUP2 ISZERO ISZERO DUP3 SUB PUSH2 0xBC JUMPI PUSH1 0x40 DUP2 ADD MLOAD PUSH1 0x1 PUSH1 0x1 PUSH1 0x40 SHL SUB DUP2 GT PUSH2 0xBC JUMPI PUSH2 0x10F3 SWAP1 PUSH1 0x20 DUP1 DUP7 ADD SWAP2 DUP5 ADD ADD PUSH2 0xCB0 JUMP JUMPDEST POP PUSH1 0x60 DUP2 ADD MLOAD PUSH1 0x1 PUSH1 0x1 PUSH1 0x40 SHL SUB DUP2 GT PUSH2 0xBC JUMPI PUSH2 0x1119 SWAP1 PUSH1 0x20 DUP1 DUP7 ADD SWAP2 DUP5 ADD ADD PUSH2 0xCB0 JUMP JUMPDEST POP PUSH1 0x80 DUP2 ADD MLOAD PUSH1 0x1 PUSH1 0x1 PUSH1 0x40 SHL SUB DUP2 GT PUSH2 0xBC JUMPI PUSH2 0x113F SWAP1 PUSH1 0x20 DUP1 DUP7 ADD SWAP2 DUP5 ADD ADD PUSH2 0xCB0 JUMP JUMPDEST SWAP3 PUSH1 0xA0 DUP3 ADD MLOAD PUSH1 0x1 PUSH1 0x1 PUSH1 0x40 SHL SUB DUP2 GT PUSH2 0xBC JUMPI PUSH1 0x60 DUP2 DUP5 ADD DUP4 SUB SLT PUSH2 0xBC JUMPI PUSH1 0x40 MLOAD SWAP3 PUSH2 0x116C DUP5 PUSH2 0x97F JUMP JUMPDEST PUSH1 0x20 DUP3 DUP3 ADD ADD MLOAD PUSH1 0x1 PUSH1 0x1 PUSH1 0x40 SHL SUB DUP2 GT PUSH2 0xBC JUMPI PUSH2 0x1195 SWAP1 PUSH1 0x20 DUP1 DUP7 ADD SWAP2 DUP6 DUP6 ADD ADD ADD PUSH2 0xCB0 JUMP JUMPDEST DUP5 MSTORE PUSH1 0x40 DUP3 DUP3 ADD ADD MLOAD PUSH1 0x1 PUSH1 0x1 PUSH1 0x40 SHL SUB DUP2 GT PUSH2 0xBC JUMPI PUSH2 0x11C0 SWAP1 PUSH1 0x20 DUP1 DUP7 ADD SWAP2 DUP6 DUP6 ADD ADD ADD PUSH2 0xCB0 JUMP JUMPDEST PUSH1 0x20 DUP6 ADD MSTORE PUSH1 0x60 DUP3 DUP3 ADD ADD MLOAD SWAP3 PUSH1 0x1 PUSH1 0x1 PUSH1 0x40 SHL SUB DUP5 GT PUSH2 0xBC JUMPI PUSH1 0x40 SWAP4 PUSH2 0x11F0 SWAP4 PUSH1 0x20 DUP1 SWAP4 ADD SWAP4 ADD ADD ADD PUSH2 0xCB0 JUMP JUMPDEST SWAP2 ADD MSTORE PUSH2 0x12EE JUMPI POP PUSH1 0x1 PUSH1 0xFF NOT PUSH1 0x6 DUP4 ADD SLOAD AND OR PUSH1 0x6 DUP3 ADD SSTORE PUSH1 0x0 PUSH1 0x40 DUP1 MLOAD PUSH2 0x1218 DUP2 PUSH2 0x97F JUMP JUMPDEST PUSH1 0x64 DUP2 MSTORE PUSH1 0x1 PUSH1 0x20 DUP3 ADD MSTORE ADD MSTORE PUSH1 0x7 DUP2 ADD PUSH2 0x164 PUSH3 0xFFFFFF NOT DUP3 SLOAD AND OR SWAP1 SSTORE PUSH1 0x1 DUP1 PUSH1 0xA0 SHL SUB PUSH1 0x1 DUP3 ADD SLOAD AND PUSH1 0x0 MSTORE PUSH1 0x3 PUSH1 0x20 MSTORE PUSH1 0x40 PUSH1 0x0 KECCAK256 DUP1 SLOAD SWAP2 PUSH1 0x64 DUP4 ADD DUP1 SWAP4 GT PUSH2 0xBBF JUMPI PUSH32 0xA1B3FDBEEF0725711F68B570D2594FB9F76409F322505748CAAAC1B416E47CEE SWAP3 PUSH1 0x40 SWAP3 SSTORE PUSH1 0x1 DUP1 PUSH1 0xA0 SHL SUB PUSH1 0x1 DUP3 ADD SLOAD AND PUSH1 0x0 MSTORE PUSH1 0x4 PUSH1 0x20 MSTORE DUP2 PUSH1 0x0 KECCAK256 PUSH2 0x12A8 DUP2 SLOAD PUSH2 0xBB0 JUMP JUMPDEST SWAP1 SSTORE PUSH1 0x1 ADD SLOAD DUP2 MLOAD SWAP1 PUSH1 0x1 PUSH1 0x1 PUSH1 0xA0 SHL SUB AND DUP5 PUSH32 0xDF1ACD053A9EEDA98D2473D7206A97D9A2642675E160695557E7436F7744A389 PUSH1 0x0 DUP1 LOG3 PUSH1 0x1 DUP2 MSTORE PUSH1 0x64 PUSH1 0x20 DUP3 ADD MSTORE LOG2 JUMP JUMPDEST SWAP2 PUSH32 0x93ADC9BA3292C08D5BAC12168AAE4A266D41E01CB399D5DECB1288010613B445 PUSH2 0x132A PUSH1 0x7 SWAP5 PUSH1 0x40 MLOAD SWAP2 DUP3 SWAP2 PUSH1 0x20 DUP4 MSTORE PUSH1 0x20 DUP4 ADD SWAP1 PUSH2 0xA9E JUMP JUMPDEST SUB SWAP1 LOG2 ADD DUP1 SLOAD PUSH3 0xFF0000 NOT AND PUSH3 0x10000 OR SWAP1 SSTORE JUMP JUMPDEST PUSH1 0x40 MLOAD PUSH3 0x461BCD PUSH1 0xE5 SHL DUP2 MSTORE PUSH1 0x20 PUSH1 0x4 DUP3 ADD MSTORE PUSH1 0x16 PUSH1 0x24 DUP3 ADD MSTORE PUSH22 0x141C9958DBDB5C1A5B194818D85B1B0819985A5B1959 PUSH1 0x52 SHL PUSH1 0x44 DUP3 ADD MSTORE PUSH1 0x64 SWAP1 REVERT JUMPDEST PUSH1 0x40 MLOAD PUSH3 0x461BCD PUSH1 0xE5 SHL DUP2 MSTORE PUSH1 0x20 PUSH1 0x4 DUP3 ADD MSTORE PUSH1 0x18 PUSH1 0x24 DUP3 ADD MSTORE PUSH32 0x43617073756C6520616C72656164792072657665616C65640000000000000000 PUSH1 0x44 DUP3 ADD MSTORE PUSH1 0x64 SWAP1 REVERT JUMPDEST PUSH1 0x40 MLOAD PUSH3 0x461BCD PUSH1 0xE5 SHL DUP2 MSTORE PUSH1 0x20 PUSH1 0x4 DUP3 ADD MSTORE PUSH1 0x16 PUSH1 0x24 DUP3 ADD MSTORE PUSH22 0x10D85C1CDD5B19481A5CC81D1A5B594B5B1BD8DAD959 PUSH1 0x52 SHL PUSH1 0x44 DUP3 ADD MSTORE PUSH1 0x64 SWAP1 REVERT JUMPDEST PUSH1 0x40 MLOAD PUSH3 0x461BCD PUSH1 0xE5 SHL DUP2 MSTORE PUSH1 0x20 PUSH1 0x4 DUP3 ADD MSTORE PUSH1 0x15 PUSH1 0x24 DUP3 ADD MSTORE PUSH21 0x13DB9B1E481BDDDB995C8818D85B881C995D99585B PUSH1 0x5A SHL PUSH1 0x44 DUP3 ADD MSTORE PUSH1 0x64 SWAP1 REVERT JUMPDEST PUSH1 0x1 PUSH1 0x1 PUSH1 0xA0 SHL SUB AND PUSH1 0x0 SWAP1 DUP2 MSTORE PUSH1 0x4 PUSH1 0x20 MSTORE PUSH1 0x40 DUP2 KECCAK256 SLOAD ISZERO PUSH2 0xCF2 JUMPI PUSH1 0x3 PUSH1 0x20 MSTORE PUSH1 0x40 DUP2 KECCAK256 SLOAD PUSH1 0x4 PUSH1 0x20 MSTORE PUSH1 0x40 DUP3 KECCAK256 SLOAD SWAP2 DUP3 ISZERO PUSH2 0x147A JUMPI POP DIV SWAP1 JUMP JUMPDEST PUSH4 0x4E487B71 PUSH1 0xE0 SHL DUP2 MSTORE PUSH1 0x12 PUSH1 0x4 MSTORE PUSH1 0x24 SWAP1 REVERT INVALID LOG2 PUSH5 0x6970667358 0x22 SLT KECCAK256 DUP6 0xB1 PUSH15 0x9FDEBAECBDEEC6ED38518DC52A5494 DELEGATECALL EXTCODESIZE 0xAC 0xE9 DELEGATECALL 0xE SAR TIMESTAMP MLOAD 0xA6 DUP11 0xD6 JUMP DUP13 PUSH5 0x736F6C6343 STOP ADDMOD XOR STOP CALLER "},"methodIdentifiers":{"capsules(uint256)":"517bbf46","createCapsule(string,uint256,string)":"51d23fb3","depositForFees(uint256)":"bc882caa","getConvictionScore(address)":"a570bdcc","getUserCapsules(address)":"366636f7","triggerUnlockAndEvaluate(uint256,address,string,bytes[],bytes[],bytes)":"66dc8031","userCapsules(address,uint256)":"a0d79fb5","userEvaluatedCapsules(address)":"81bb42f4","userTotalScore(address)":"d0023fcb"}}}}}