{
  "_format": "hh-sol-artifact-1",
  "contractName": "VeinVault",
  "sourceName": "contracts/VeinVault.sol",
  "abi": [
    {
      "anonymous": false,
      "inputs": [
        {
          "indexed": true,
          "internalType": "uint256",
          "name": "id",
          "type": "uint256"
        },
        {
          "indexed": true,
          "internalType": "address",
          "name": "owner",
          "type": "address"
        },
        {
          "indexed": false,
          "internalType": "uint256",
          "name": "unlockTimestamp",
          "type": "uint256"
        }
      ],
      "name": "CapsuleCreated",
      "type": "event"
    },
    {
      "anonymous": false,
      "inputs": [
        {
          "indexed": true,
          "internalType": "uint256",
          "name": "id",
          "type": "uint256"
        },
        {
          "indexed": true,
          "internalType": "address",
          "name": "owner",
          "type": "address"
        }
      ],
      "name": "CapsuleRevealed",
      "type": "event"
    },
    {
      "anonymous": false,
      "inputs": [
        {
          "indexed": true,
          "internalType": "uint256",
          "name": "id",
          "type": "uint256"
        },
        {
          "indexed": false,
          "internalType": "string",
          "name": "errorMsg",
          "type": "string"
        }
      ],
      "name": "InferenceError",
      "type": "event"
    },
    {
      "anonymous": false,
      "inputs": [
        {
          "indexed": true,
          "internalType": "uint256",
          "name": "id",
          "type": "uint256"
        },
        {
          "indexed": false,
          "internalType": "enum VeinVault.Verdict",
          "name": "verdict",
          "type": "uint8"
        },
        {
          "indexed": false,
          "internalType": "uint8",
          "name": "score",
          "type": "uint8"
        }
      ],
      "name": "VerdictStored",
      "type": "event"
    },
    {
      "inputs": [
        {
          "internalType": "uint256",
          "name": "",
          "type": "uint256"
        }
      ],
      "name": "capsules",
      "outputs": [
        {
          "internalType": "uint256",
          "name": "id",
          "type": "uint256"
        },
        {
          "internalType": "address",
          "name": "owner",
          "type": "address"
        },
        {
          "internalType": "string",
          "name": "category",
          "type": "string"
        },
        {
          "internalType": "uint256",
          "name": "createdAt",
          "type": "uint256"
        },
        {
          "internalType": "uint256",
          "name": "unlockTimestamp",
          "type": "uint256"
        },
        {
          "internalType": "string",
          "name": "encryptedPayloadHash",
          "type": "string"
        },
        {
          "internalType": "bool",
          "name": "isRevealed",
          "type": "bool"
        },
        {
          "components": [
            {
              "internalType": "uint8",
              "name": "score",
              "type": "uint8"
            },
            {
              "internalType": "enum VeinVault.Verdict",
              "name": "verdict",
              "type": "uint8"
            },
            {
              "internalType": "bool",
              "name": "hasError",
              "type": "bool"
            }
          ],
          "internalType": "struct VeinVault.Evaluation",
          "name": "evaluation",
          "type": "tuple"
        }
      ],
      "stateMutability": "view",
      "type": "function"
    },
    {
      "inputs": [
        {
          "internalType": "string",
          "name": "category",
          "type": "string"
        },
        {
          "internalType": "uint256",
          "name": "unlockTimestamp",
          "type": "uint256"
        },
        {
          "internalType": "string",
          "name": "encryptedPayloadHash",
          "type": "string"
        }
      ],
      "name": "createCapsule",
      "outputs": [
        {
          "internalType": "uint256",
          "name": "",
          "type": "uint256"
        }
      ],
      "stateMutability": "nonpayable",
      "type": "function"
    },
    {
      "inputs": [
        {
          "internalType": "uint256",
          "name": "lockDuration",
          "type": "uint256"
        }
      ],
      "name": "depositForFees",
      "outputs": [],
      "stateMutability": "payable",
      "type": "function"
    },
    {
      "inputs": [
        {
          "internalType": "address",
          "name": "user",
          "type": "address"
        }
      ],
      "name": "getConvictionScore",
      "outputs": [
        {
          "internalType": "uint256",
          "name": "",
          "type": "uint256"
        }
      ],
      "stateMutability": "view",
      "type": "function"
    },
    {
      "inputs": [
        {
          "internalType": "address",
          "name": "user",
          "type": "address"
        }
      ],
      "name": "getUserCapsules",
      "outputs": [
        {
          "internalType": "uint256[]",
          "name": "",
          "type": "uint256[]"
        }
      ],
      "stateMutability": "view",
      "type": "function"
    },
    {
      "inputs": [
        {
          "internalType": "uint256",
          "name": "capsuleId",
          "type": "uint256"
        },
        {
          "internalType": "address",
          "name": "executor",
          "type": "address"
        },
        {
          "internalType": "string",
          "name": "messagesJson",
          "type": "string"
        },
        {
          "internalType": "bytes[]",
          "name": "encryptedSecrets",
          "type": "bytes[]"
        },
        {
          "internalType": "bytes[]",
          "name": "secretSignatures",
          "type": "bytes[]"
        },
        {
          "internalType": "bytes",
          "name": "responseFormatData",
          "type": "bytes"
        }
      ],
      "name": "triggerUnlockAndEvaluate",
      "outputs": [],
      "stateMutability": "nonpayable",
      "type": "function"
    },
    {
      "inputs": [
        {
          "internalType": "address",
          "name": "",
          "type": "address"
        },
        {
          "internalType": "uint256",
          "name": "",
          "type": "uint256"
        }
      ],
      "name": "userCapsules",
      "outputs": [
        {
          "internalType": "uint256",
          "name": "",
          "type": "uint256"
        }
      ],
      "stateMutability": "view",
      "type": "function"
    },
    {
      "inputs": [
        {
          "internalType": "address",
          "name": "",
          "type": "address"
        }
      ],
      "name": "userEvaluatedCapsules",
      "outputs": [
        {
          "internalType": "uint256",
          "name": "",
          "type": "uint256"
        }
      ],
      "stateMutability": "view",
      "type": "function"
    },
    {
      "inputs": [
        {
          "internalType": "address",
          "name": "",
          "type": "address"
        }
      ],
      "name": "userTotalScore",
      "outputs": [
        {
          "internalType": "uint256",
          "name": "",
          "type": "uint256"
        }
      ],
      "stateMutability": "view",
      "type": "function"
    }
  ],
  "bytecode": "0x6080806040523461001657610e24908161001c8239f35b600080fdfe608080604052600436101561001357600080fd5b60003560e01c908163366636f714610a7857508063517bbf461461096c57806351d23fb3146104ae57806366dc80311461023957806381bb42f4146101ff578063a0d79fb5146101a7578063a570bdcc1461017c578063bc882caa146100c15763d0023fcb1461008257600080fd5b346100bc5760203660031901126100bc576001600160a01b036100a3610b28565b1660005260036020526020604060002054604051908152f35b600080fd5b60203660031901126100bc57600080604051602081019063b6b55f2560e01b82526004356024820152602481526100f781610b78565b51903473532f0df0896f353d8c3dd8cc134e8129da2a39485af13d15610177573d61012181610c9b565b9061012f6040519283610b94565b8152600060203d92013e5b1561014157005b60405162461bcd60e51b815260206004820152600e60248201526d11195c1bdcda5d0819985a5b195960921b6044820152606490fd5b61013a565b346100bc5760203660031901126100bc57602061019f61019a610b28565b610d9a565b604051908152f35b346100bc5760403660031901126100bc576101c0610b28565b6001600160a01b03166000908152600260205260409020805460243591908210156100bc576020916101f191610d5d565b90546040519160031b1c8152f35b346100bc5760203660031901126100bc576001600160a01b03610220610b28565b1660005260046020526020604060002054604051908152f35b346100bc5760c03660031901126100bc576004356001600160a01b03602435818116036100bc5767ffffffffffffffff6044358181116100bc57610281903690600401610cfe565b50506064358181116100bc5761029b903690600401610d2c565b50506084358181116100bc576102b5903690600401610d2c565b505060a4359081116100bc576102cf903690600401610cfe565b505081600052602090600182526040600020916001830192828454169081330361047157600481015442106104335760068101805460ff81166103ee5760ff19166001179055604080516007929160009161032981610b78565b605f815260018782015201520161015f62ffffff19825416179055600052600381526040600020805492605f84018094116103d8577fa1b3fdbeef0725711f68b570d2594fb9f76409f322505748caaac1b416e47cee94604094605f93558181541660005260048452846000206103a08154610d8b565b9055541691835192867fdf1acd053a9eeda98d2473d7206a97d9a2642675e160695557e7436f7744a389600080a360018352820152a2005b634e487b7160e01b600052601160045260246000fd5b60405162461bcd60e51b815260048101869052601860248201527f43617073756c6520616c72656164792072657665616c656400000000000000006044820152606490fd5b60405162461bcd60e51b815260048101849052601660248201527510d85c1cdd5b19481a5cc81d1a5b594b5b1bd8dad95960521b6044820152606490fd5b60405162461bcd60e51b815260048101849052601560248201527413db9b1e481bdddb995c8818d85b881c995d99585b605a1b6044820152606490fd5b346100bc5760603660031901126100bc5760043567ffffffffffffffff81116100bc576104df903690600401610cb7565b60443567ffffffffffffffff81116100bc576104ff903690600401610cb7565b9042602435111561091d57610515600054610d8b565b90816000556040519061052782610b78565b60008252600060208301526000604083015260405191610100830183811067ffffffffffffffff82111761076b57604052838352602083019433865260408401928352426060850152602435608085015260a0840152600060c084015260e083015282600052600160205260406000209382518555600185019060018060a01b039051166bffffffffffffffffffffffff60a01b8254161790555192835167ffffffffffffffff811161076b576105e16002830154610b3e565b601f81116108d6575b506020601f821160011461086757819293949560009261085c575b50508160011b916000199060031b1c19161760028201555b606082015160038201556080820151600482015560a082015180519067ffffffffffffffff821161076b576106556005840154610b3e565b601f8111610815575b50602090601f83116001146107a257918060e09492600794600092610797575b50508160011b916000199060031b1c19161760058201555b6006810160c0850151151560ff801983541691161790550191015160ff81511682549160208101519160058310156107815762ff0000604061ff00930151151560101b169362ffffff1916179160081b16171790553360005260026020526040600020908154916801000000000000000083101561076b5782610720916001602095018155610d5d565b81549060031b9083821b91600019901b19161790556040516024358152817f94c04aecc42f013fcb329d54ab685a53f3a2a84902997bdbb2addc2af8e5b9e3843393a3604051908152f35b634e487b7160e01b600052604160045260246000fd5b634e487b7160e01b600052602160045260246000fd5b01519050878061067e565b90601f198316916005850160005260206000209260005b8181106107fd575092600192859260079660e09896106107e4575b505050811b016005820155610696565b015160001960f88460031b161c191690558780806107d4565b929360206001819287860151815501950193016107b9565b600584016000526020600020601f840160051c810160208510610855575b601f830160051c8201811061084957505061065e565b60008155600101610833565b5080610833565b015190508580610605565b6002830160005260206000209060005b601f19841681106108be575060019394959683601f198116106108a5575b505050811b01600282015561061d565b015160001960f88460031b161c19169055858080610895565b9091602060018192858b015181550193019101610877565b600283016000526020600020601f830160051c810160208410610916575b601f830160051c8201811061090a5750506105ea565b600081556001016108f4565b50806108f4565b60405162461bcd60e51b815260206004820152602160248201527f556e6c6f636b2074696d65206d75737420626520696e207468652066757475726044820152606560f81b6064820152608490fd5b346100bc5760203660031901126100bc5760043560005260016020526040600020805460018060a01b036001830154166109a860028401610bb6565b926003810154916004820154916109c160058201610bb6565b9460ff600683015416946007604051936109da85610b78565b01549660ff8816845260ff8860081c1695602085019660058110156107815760409a60ff97610a4996610a31938b52898e8a019d60101c1615158d528d519d8e6101409384938252602082015201528c0190610c5b565b9260608b015260808a015288820360a08a0152610c5b565b93151560c0870152511660e0850152519160058310156107815783926101008401525115156101208301520390f35b346100bc57602090816003193601126100bc576001600160a01b03610a9b610b28565b166000526002825260406000208054808352838301908192600052846000209060005b86828210610b14578686610ad482880383610b94565b604051928392818401908285525180915260408401929160005b828110610afd57505050500390f35b835185528695509381019392810192600101610aee565b835485529093019260019283019201610abe565b600435906001600160a01b03821682036100bc57565b90600182811c92168015610b6e575b6020831014610b5857565b634e487b7160e01b600052602260045260246000fd5b91607f1691610b4d565b6060810190811067ffffffffffffffff82111761076b57604052565b90601f8019910116810190811067ffffffffffffffff82111761076b57604052565b90604051918260008254610bc981610b3e565b90818452602094600191600181169081600014610c395750600114610bfa575b505050610bf892500383610b94565b565b600090815285812095935091905b818310610c21575050610bf89350820101388080610be9565b85548884018501529485019487945091830191610c08565b92505050610bf894925060ff191682840152151560051b820101388080610be9565b919082519283825260005b848110610c87575050826000602080949584010152601f8019910116010190565b602081830181015184830182015201610c66565b67ffffffffffffffff811161076b57601f01601f191660200190565b81601f820112156100bc57803590610cce82610c9b565b92610cdc6040519485610b94565b828452602083830101116100bc57816000926020809301838601378301015290565b9181601f840112156100bc5782359167ffffffffffffffff83116100bc57602083818601950101116100bc57565b9181601f840112156100bc5782359167ffffffffffffffff83116100bc576020808501948460051b0101116100bc57565b8054821015610d755760005260206000200190600090565b634e487b7160e01b600052603260045260246000fd5b60001981146103d85760010190565b6001600160a01b031660009081526004602052604081205415610deb576003602052604081205460046020526040822054918215610dd757500490565b634e487b7160e01b81526012600452602490fd5b9056fea26469706673582212209a157396efe5d6c2c8b1f83cc344ab33b9c3098a9f3b294e28e30d3ca55f423864736f6c63430008180033",
  "linkReferences": {},
  "deployedLinkReferences": {}
}