{
  "_format": "hh-sol-artifact-1",
  "contractName": "VeinVault",
  "sourceName": "contracts/VeinVault.sol",
  "abi": [
    {
      "anonymous": false,
      "inputs": [
        {
          "indexed": true,
          "internalType": "uint256",
          "name": "id",
          "type": "uint256"
        },
        {
          "indexed": true,
          "internalType": "address",
          "name": "owner",
          "type": "address"
        },
        {
          "indexed": false,
          "internalType": "uint256",
          "name": "unlockTimestamp",
          "type": "uint256"
        }
      ],
      "name": "CapsuleCreated",
      "type": "event"
    },
    {
      "anonymous": false,
      "inputs": [
        {
          "indexed": true,
          "internalType": "uint256",
          "name": "id",
          "type": "uint256"
        },
        {
          "indexed": true,
          "internalType": "address",
          "name": "owner",
          "type": "address"
        }
      ],
      "name": "CapsuleRevealed",
      "type": "event"
    },
    {
      "anonymous": false,
      "inputs": [
        {
          "indexed": true,
          "internalType": "uint256",
          "name": "id",
          "type": "uint256"
        },
        {
          "indexed": false,
          "internalType": "string",
          "name": "errorMsg",
          "type": "string"
        }
      ],
      "name": "InferenceError",
      "type": "event"
    },
    {
      "anonymous": false,
      "inputs": [
        {
          "indexed": true,
          "internalType": "uint256",
          "name": "id",
          "type": "uint256"
        },
        {
          "indexed": false,
          "internalType": "enum VeinVault.Verdict",
          "name": "verdict",
          "type": "uint8"
        },
        {
          "indexed": false,
          "internalType": "uint8",
          "name": "score",
          "type": "uint8"
        }
      ],
      "name": "VerdictStored",
      "type": "event"
    },
    {
      "inputs": [
        {
          "internalType": "uint256",
          "name": "",
          "type": "uint256"
        }
      ],
      "name": "capsules",
      "outputs": [
        {
          "internalType": "uint256",
          "name": "id",
          "type": "uint256"
        },
        {
          "internalType": "address",
          "name": "owner",
          "type": "address"
        },
        {
          "internalType": "string",
          "name": "category",
          "type": "string"
        },
        {
          "internalType": "uint256",
          "name": "createdAt",
          "type": "uint256"
        },
        {
          "internalType": "uint256",
          "name": "unlockTimestamp",
          "type": "uint256"
        },
        {
          "internalType": "string",
          "name": "encryptedPayloadHash",
          "type": "string"
        },
        {
          "internalType": "bool",
          "name": "isRevealed",
          "type": "bool"
        },
        {
          "components": [
            {
              "internalType": "uint8",
              "name": "score",
              "type": "uint8"
            },
            {
              "internalType": "enum VeinVault.Verdict",
              "name": "verdict",
              "type": "uint8"
            },
            {
              "internalType": "bool",
              "name": "hasError",
              "type": "bool"
            }
          ],
          "internalType": "struct VeinVault.Evaluation",
          "name": "evaluation",
          "type": "tuple"
        }
      ],
      "stateMutability": "view",
      "type": "function"
    },
    {
      "inputs": [
        {
          "internalType": "string",
          "name": "category",
          "type": "string"
        },
        {
          "internalType": "uint256",
          "name": "unlockTimestamp",
          "type": "uint256"
        },
        {
          "internalType": "string",
          "name": "encryptedPayloadHash",
          "type": "string"
        }
      ],
      "name": "createCapsule",
      "outputs": [
        {
          "internalType": "uint256",
          "name": "",
          "type": "uint256"
        }
      ],
      "stateMutability": "nonpayable",
      "type": "function"
    },
    {
      "inputs": [
        {
          "internalType": "uint256",
          "name": "lockDuration",
          "type": "uint256"
        }
      ],
      "name": "depositForFees",
      "outputs": [],
      "stateMutability": "payable",
      "type": "function"
    },
    {
      "inputs": [
        {
          "internalType": "address",
          "name": "user",
          "type": "address"
        }
      ],
      "name": "getConvictionScore",
      "outputs": [
        {
          "internalType": "uint256",
          "name": "",
          "type": "uint256"
        }
      ],
      "stateMutability": "view",
      "type": "function"
    },
    {
      "inputs": [
        {
          "internalType": "address",
          "name": "user",
          "type": "address"
        }
      ],
      "name": "getUserCapsules",
      "outputs": [
        {
          "internalType": "uint256[]",
          "name": "",
          "type": "uint256[]"
        }
      ],
      "stateMutability": "view",
      "type": "function"
    },
    {
      "inputs": [
        {
          "internalType": "uint256",
          "name": "capsuleId",
          "type": "uint256"
        },
        {
          "internalType": "string",
          "name": "messagesJson",
          "type": "string"
        },
        {
          "internalType": "bytes[]",
          "name": "encryptedSecrets",
          "type": "bytes[]"
        },
        {
          "internalType": "bytes[]",
          "name": "secretSignatures",
          "type": "bytes[]"
        },
        {
          "internalType": "bytes",
          "name": "responseFormatData",
          "type": "bytes"
        }
      ],
      "name": "triggerUnlockAndEvaluate",
      "outputs": [],
      "stateMutability": "nonpayable",
      "type": "function"
    },
    {
      "inputs": [
        {
          "internalType": "address",
          "name": "",
          "type": "address"
        },
        {
          "internalType": "uint256",
          "name": "",
          "type": "uint256"
        }
      ],
      "name": "userCapsules",
      "outputs": [
        {
          "internalType": "uint256",
          "name": "",
          "type": "uint256"
        }
      ],
      "stateMutability": "view",
      "type": "function"
    },
    {
      "inputs": [
        {
          "internalType": "address",
          "name": "",
          "type": "address"
        }
      ],
      "name": "userEvaluatedCapsules",
      "outputs": [
        {
          "internalType": "uint256",
          "name": "",
          "type": "uint256"
        }
      ],
      "stateMutability": "view",
      "type": "function"
    },
    {
      "inputs": [
        {
          "internalType": "address",
          "name": "",
          "type": "address"
        }
      ],
      "name": "userTotalScore",
      "outputs": [
        {
          "internalType": "uint256",
          "name": "",
          "type": "uint256"
        }
      ],
      "stateMutability": "view",
      "type": "function"
    }
  ],
  "bytecode": "0x60808060405234610016576114a6908161001c8239f35b600080fdfe608080604052600436101561001357600080fd5b60003560e01c908163366636f71461086757508063517bbf461461075b57806351d23fb3146102a257806376d64cf91461021457806381bb42f4146101da578063a0d79fb514610182578063a570bdcc14610157578063bc882caa146100c15763d0023fcb1461008257600080fd5b346100bc5760203660031901126100bc576001600160a01b036100a3610917565b1660005260036020526020604060002054604051908152f35b600080fd5b60203660031901126100bc57600080604051602081019063b6b55f2560e01b82526004356024820152602481526100f781610967565b51903473532f0df0896f353d8c3dd8cc134e8129da2a39485af1610119610c68565b501561012157005b60405162461bcd60e51b815260206004820152600e60248201526d11195c1bdcda5d0819985a5b195960921b6044820152606490fd5b346100bc5760203660031901126100bc57602061017a610175610917565b61141f565b604051908152f35b346100bc5760403660031901126100bc5761019b610917565b6001600160a01b03166000908152600260205260409020805460243591908210156100bc576020916101cc91610b6a565b90546040519160031b1c8152f35b346100bc5760203660031901126100bc576001600160a01b036101fb610917565b1660005260046020526020604060002054604051908152f35b346100bc5760a03660031901126100bc576001600160401b036024358181116100bc57610245903690600401610b0d565b906044358381116100bc5761025e903690600401610b3a565b906064358581116100bc57610277903690600401610b3a565b9290916084359687116100bc576102956102a0973690600401610b0d565b969095600435610cdd565b005b346100bc5760603660031901126100bc576004356001600160401b0381116100bc576102d2903690600401610ac6565b6044356001600160401b0381116100bc576102f1903690600401610ac6565b9042602435111561070c57610307600054610b98565b90816000556040519061031982610967565b6000825260006020830152600060408301526040519161010083018381106001600160401b0382111761055a57604052838352602083019433865260408401928352426060850152602435608085015260a0840152600060c084015260e083015282600052600160205260406000209382518555600185019060018060a01b039051166bffffffffffffffffffffffff60a01b825416179055519283516001600160401b03811161055a576103d1600283015461092d565b601f81116106c5575b506020601f821160011461065657819293949560009261064b575b50508160011b916000199060031b1c19161760028201555b606082015160038201556080820151600482015560a08201518051906001600160401b03821161055a57610444600584015461092d565b601f8111610604575b50602090601f831160011461059157918060e09492600794600092610586575b50508160011b916000199060031b1c19161760058201555b6006810160c0850151151560ff801983541691161790550191015160ff81511682549160208101519160058310156105705762ff0000604061ff00930151151560101b169362ffffff1916179160081b16171790553360005260026020526040600020908154916801000000000000000083101561055a578261050f916001602095018155610b6a565b81549060031b9083821b91600019901b19161790556040516024358152817f94c04aecc42f013fcb329d54ab685a53f3a2a84902997bdbb2addc2af8e5b9e3843393a3604051908152f35b634e487b7160e01b600052604160045260246000fd5b634e487b7160e01b600052602160045260246000fd5b01519050878061046d565b90601f198316916005850160005260206000209260005b8181106105ec575092600192859260079660e09896106105d3575b505050811b016005820155610485565b015160001960f88460031b161c191690558780806105c3565b929360206001819287860151815501950193016105a8565b600584016000526020600020601f840160051c810160208510610644575b601f830160051c8201811061063857505061044d565b60008155600101610622565b5080610622565b0151905085806103f5565b6002830160005260206000209060005b601f19841681106106ad575060019394959683601f19811610610694575b505050811b01600282015561040d565b015160001960f88460031b161c19169055858080610684565b9091602060018192858b015181550193019101610666565b600283016000526020600020601f830160051c810160208410610705575b601f830160051c820181106106f95750506103da565b600081556001016106e3565b50806106e3565b60405162461bcd60e51b815260206004820152602160248201527f556e6c6f636b2074696d65206d75737420626520696e207468652066757475726044820152606560f81b6064820152608490fd5b346100bc5760203660031901126100bc5760043560005260016020526040600020805460018060a01b03600183015416610797600284016109be565b926003810154916004820154916107b0600582016109be565b9460ff600683015416946007604051936107c985610967565b01549660ff8816845260ff8860081c1695602085019660058110156105705760409a60ff9761083896610820938b52898e8a019d60101c1615158d528d519d8e6101409384938252602082015201528c0190610a86565b9260608b015260808a015288820360a08a0152610a86565b93151560c0870152511660e0850152519160058310156105705783926101008401525115156101208301520390f35b346100bc57602090816003193601126100bc576001600160a01b0361088a610917565b166000526002825260406000208054808352838301908192600052846000209060005b868282106109035786866108c38288038361099d565b604051928392818401908285525180915260408401929160005b8281106108ec57505050500390f35b8351855286955093810193928101926001016108dd565b8354855290930192600192830192016108ad565b600435906001600160a01b03821682036100bc57565b90600182811c9216801561095d575b602083101461094757565b634e487b7160e01b600052602260045260246000fd5b91607f169161093c565b606081019081106001600160401b0382111761055a57604052565b602081019081106001600160401b0382111761055a57604052565b90601f801991011681019081106001600160401b0382111761055a57604052565b906040519182600082546109d18161092d565b90818452602094600191600181169081600014610a415750600114610a02575b505050610a009250038361099d565b565b600090815285812095935091905b818310610a29575050610a0093508201013880806109f1565b85548884018501529485019487945091830191610a10565b92505050610a0094925060ff191682840152151560051b8201013880806109f1565b60005b838110610a765750506000910152565b8181015183820152602001610a66565b90602091610a9f81518092818552858086019101610a63565b601f01601f1916010190565b6001600160401b03811161055a57601f01601f191660200190565b81601f820112156100bc57803590610add82610aab565b92610aeb604051948561099d565b828452602083830101116100bc57816000926020809301838601378301015290565b9181601f840112156100bc578235916001600160401b0383116100bc57602083818601950101116100bc57565b9181601f840112156100bc578235916001600160401b0383116100bc576020808501948460051b0101116100bc57565b8054821015610b825760005260206000200190600090565b634e487b7160e01b600052603260045260246000fd5b6000198114610ba75760010190565b634e487b7160e01b600052601160045260246000fd5b908060209392818452848401376000828201840152601f01601f1916010190565b908281815260208091019360208360051b82010194846000925b858410610c09575050505050505090565b90919293949596601f198282030184528735601e19843603018112156100bc5783018681019190356001600160401b0381116100bc5780360383136100bc57610c5788928392600195610bbd565b990194019401929594939190610bf8565b3d15610c93573d90610c7982610aab565b91610c87604051938461099d565b82523d6000602084013e565b606090565b81601f820112156100bc578051610cae81610aab565b92610cbc604051948561099d565b818452602082840101116100bc57610cda9160208085019101610a63565b90565b979691929390949688600052600160205260406000209760018060a01b0360018a01541633036113e257600489015442106113a45760ff60068a01541661135f57604051610d2a81610982565b6000815260405194610d3b86610982565b6000865260405193610d4c85610982565b6000855260405198606060208b0152600360808b01526267637360e81b60a08b015260a060408b0152601360c08b0152721d995a5b8bdcd95cdcda5bdb9ccb9a9cdbdb9b606a1b60e08b015260e060608b0152600a6101008b0152610120695645494e5f435245445360b01b818c01528a52896101408101106001600160401b036101408c01111761055a57610e6a60009c9b6110039a610e568f9e610f33988f91610f939b610e4291610fa79f60e09a610e2591610140880160405260006101608901526103c0610180890152610520880191610bde565b61012c6101a087015285810361015f19016101c087015291610bde565b916101e061015f1982850301910152610a86565b8d810361015f19016102008f015291610bbd565b8a810361015f1981016102208d015260138252720f4c2d25adee4ce5e8e989a5a685c6e5a8ca07606b1b60208301526102408c018d905261011f1981016102608d0152604082018d90526102808c018d90526110006102a08d015260ff1981016102c08d0152606082018d905260df1981016102e08d0152608082018d905260016103008d018190526103208d01526103408c018d905260bf1981016103608d0152600660a0830152656d656469756d60d01b60c0830152607f19016103808c01520191610bbd565b936060881995866103a08a015288810361015f1981016103c08b015260048252636175746f60e01b602083015261011f1981016103e08b01528a60408301528a6104008b01526102bc6104208b015260ff19016104408a01520190610a86565b85810361015f190161046087015290610a86565b906104808401526103e86104a084015282610feb60208284039361013f19809561015f1981016104c0870152898352896104e0870152016105008501520182610a86565b0361015f19810161014085015201610140830161099d565b6101606101408201519101826108025af161101c610c68565b90156113215780518101604082602083019203126100bc5760208201516001600160401b0381116100bc5781602061105692850101610c98565b506040820151916001600160401b0383116100bc576110789201602001610c98565b60606040805161108781610967565b8281528260208201520152805181019060a0818303126100bc5760208101519081151582036100bc5760408101516001600160401b0381116100bc576110d590602080860191840101610c98565b5060608101516001600160401b0381116100bc576110fb90602080860191840101610c98565b5060808101516001600160401b0381116100bc5761112190602080860191840101610c98565b9260a08201516001600160401b0381116100bc5760608184018303126100bc576040519261114e84610967565b602082820101516001600160401b0381116100bc57611177906020808601918585010101610c98565b8452604082820101516001600160401b0381116100bc576111a2906020808601918585010101610c98565b602085015260608282010151926001600160401b0384116100bc576040936111d293602080930193010101610c98565b9101526112d05750600160ff196006830154161760068201556000604080516111fa81610967565b606481526001602082015201526007810161016462ffffff1982541617905560018060a01b036001820154166000526003602052604060002080549160648301809311610ba7577fa1b3fdbeef0725711f68b570d2594fb9f76409f322505748caaac1b416e47cee926040925560018060a01b0360018201541660005260046020528160002061128a8154610b98565b9055600101548151906001600160a01b0316847fdf1acd053a9eeda98d2473d7206a97d9a2642675e160695557e7436f7744a389600080a36001815260646020820152a2565b917f93adc9ba3292c08d5bac12168aae4a266d41e01cb399d5decb1288010613b44561130c600794604051918291602083526020830190610a86565b0390a201805462ff0000191662010000179055565b60405162461bcd60e51b8152602060048201526016602482015275141c9958dbdb5c1a5b194818d85b1b0819985a5b195960521b6044820152606490fd5b60405162461bcd60e51b815260206004820152601860248201527f43617073756c6520616c72656164792072657665616c656400000000000000006044820152606490fd5b60405162461bcd60e51b815260206004820152601660248201527510d85c1cdd5b19481a5cc81d1a5b594b5b1bd8dad95960521b6044820152606490fd5b60405162461bcd60e51b815260206004820152601560248201527413db9b1e481bdddb995c8818d85b881c995d99585b605a1b6044820152606490fd5b6001600160a01b031660009081526004602052604081205415610cda57600360205260408120546004602052604082205491821561145c57500490565b634e487b7160e01b81526012600452602490fdfea264697066735822122051e4db3b616cb2bfeffc091fea910002a687c810c914c853370ad4d2266dc46064736f6c63430008180033",
  "linkReferences": {},
  "deployedLinkReferences": {}
}